{
  "_format": "hh-sol-artifact-1",
  "contractName": "PostTweet",
  "sourceName": "contracts/PostTweet.sol",
  "abi": [
    {
      "anonymous": false,
      "inputs": [
        {
          "indexed": true,
          "internalType": "uint256",
          "name": "tweetId",
          "type": "uint256"
        },
        {
          "indexed": true,
          "internalType": "address",
          "name": "author",
          "type": "address"
        },
        {
          "indexed": false,
          "internalType": "string",
          "name": "content",
          "type": "string"
        },
        {
          "indexed": false,
          "internalType": "string",
          "name": "mediaCID",
          "type": "string"
        },
        {
          "indexed": false,
          "internalType": "uint256",
          "name": "timestamp",
          "type": "uint256"
        }
      ],
      "name": "TweetPosted",
      "type": "event"
    },
    {
      "inputs": [
        {
          "internalType": "address",
          "name": "_user",
          "type": "address"
        }
      ],
      "name": "getTweetsByUser",
      "outputs": [
        {
          "components": [
            {
              "internalType": "uint256",
              "name": "id",
              "type": "uint256"
            },
            {
              "internalType": "address",
              "name": "author",
              "type": "address"
            },
            {
              "internalType": "string",
              "name": "content",
              "type": "string"
            },
            {
              "internalType": "string",
              "name": "mediaCID",
              "type": "string"
            },
            {
              "internalType": "uint256",
              "name": "timestamp",
              "type": "uint256"
            }
          ],
          "internalType": "struct PostTweet.Tweet[]",
          "name": "",
          "type": "tuple[]"
        }
      ],
      "stateMutability": "view",
      "type": "function"
    },
    {
      "inputs": [
        {
          "internalType": "string",
          "name": "_content",
          "type": "string"
        },
        {
          "internalType": "string",
          "name": "_mediaCID",
          "type": "string"
        }
      ],
      "name": "postTweet",
      "outputs": [],
      "stateMutability": "nonpayable",
      "type": "function"
    },
    {
      "inputs": [],
      "name": "tweetCounter",
      "outputs": [
        {
          "internalType": "uint256",
          "name": "",
          "type": "uint256"
        }
      ],
      "stateMutability": "view",
      "type": "function"
    },
    {
      "inputs": [
        {
          "internalType": "address",
          "name": "",
          "type": "address"
        },
        {
          "internalType": "uint256",
          "name": "",
          "type": "uint256"
        }
      ],
      "name": "userTweets",
      "outputs": [
        {
          "internalType": "uint256",
          "name": "id",
          "type": "uint256"
        },
        {
          "internalType": "address",
          "name": "author",
          "type": "address"
        },
        {
          "internalType": "string",
          "name": "content",
          "type": "string"
        },
        {
          "internalType": "string",
          "name": "mediaCID",
          "type": "string"
        },
        {
          "internalType": "uint256",
          "name": "timestamp",
          "type": "uint256"
        }
      ],
      "stateMutability": "view",
      "type": "function"
    }
  ],
  "bytecode": "0x608060405234801561001057600080fd5b5061107e806100206000396000f3fe608060405234801561001057600080fd5b506004361061004c5760003560e01c806322b13ac8146100515780632e06f3471461006f5780633c64a17d146100a3578063707c54e5146100bf575b600080fd5b6100596100ef565b60405161006691906106a6565b60405180910390f35b6100896004803603810190610084919061075f565b6100f5565b60405161009a95949392919061083e565b60405180910390f35b6100bd60048036038101906100b891906109d4565b610278565b005b6100d960048036038101906100d49190610a4c565b610462565b6040516100e69190610c20565b60405180910390f35b60015481565b6000602052816000526040600020818154811061011157600080fd5b9060005260206000209060050201600091509150508060000154908060010160009054906101000a900473ffffffffffffffffffffffffffffffffffffffff169080600201805461016190610c71565b80601f016020809104026020016040519081016040528092919081815260200182805461018d90610c71565b80156101da5780601f106101af576101008083540402835291602001916101da565b820191906000526020600020905b8154815290600101906020018083116101bd57829003601f168201915b5050505050908060030180546101ef90610c71565b80601f016020809104026020016040519081016040528092919081815260200182805461021b90610c71565b80156102685780601f1061023d57610100808354040283529160200191610268565b820191906000526020600020905b81548152906001019060200180831161024b57829003601f168201915b5050505050908060040154905085565b60008251116102bc576040517f08c379a00000000000000000000000000000000000000000000000000000000081526004016102b390610cee565b60405180910390fd5b60006040518060a0016040528060015481526020013373ffffffffffffffffffffffffffffffffffffffff1681526020018481526020018381526020014281525090506000803373ffffffffffffffffffffffffffffffffffffffff1673ffffffffffffffffffffffffffffffffffffffff1681526020019081526020016000208190806001815401808255809150506001900390600052602060002090600502016000909190919091506000820151816000015560208201518160010160006101000a81548173ffffffffffffffffffffffffffffffffffffffff021916908373ffffffffffffffffffffffffffffffffffffffff16021790555060408201518160020190816103cd9190610eba565b5060608201518160030190816103e39190610eba565b506080820151816004015550503373ffffffffffffffffffffffffffffffffffffffff166001547f2f1db5e66c9090f15538b07b8a1b93d948b0d7ddb9e10aa0cdf618aa931d607285854260405161043d93929190610f8c565b60405180910390a36001600081548092919061045890611000565b9190505550505050565b60606000808373ffffffffffffffffffffffffffffffffffffffff1673ffffffffffffffffffffffffffffffffffffffff168152602001908152602001600020805480602002602001604051908101604052809291908181526020016000905b8282101561068257838290600052602060002090600502016040518060a0016040529081600082015481526020016001820160009054906101000a900473ffffffffffffffffffffffffffffffffffffffff1673ffffffffffffffffffffffffffffffffffffffff1673ffffffffffffffffffffffffffffffffffffffff16815260200160028201805461055590610c71565b80601f016020809104026020016040519081016040528092919081815260200182805461058190610c71565b80156105ce5780601f106105a3576101008083540402835291602001916105ce565b820191906000526020600020905b8154815290600101906020018083116105b157829003601f168201915b505050505081526020016003820180546105e790610c71565b80601f016020809104026020016040519081016040528092919081815260200182805461061390610c71565b80156106605780601f1061063557610100808354040283529160200191610660565b820191906000526020600020905b81548152906001019060200180831161064357829003601f168201915b50505050508152602001600482015481525050815260200190600101906104c2565b505050509050919050565b6000819050919050565b6106a08161068d565b82525050565b60006020820190506106bb6000830184610697565b92915050565b6000604051905090565b600080fd5b600080fd5b600073ffffffffffffffffffffffffffffffffffffffff82169050919050565b6000610700826106d5565b9050919050565b610710816106f5565b811461071b57600080fd5b50565b60008135905061072d81610707565b92915050565b61073c8161068d565b811461074757600080fd5b50565b60008135905061075981610733565b92915050565b60008060408385031215610776576107756106cb565b5b60006107848582860161071e565b92505060206107958582860161074a565b9150509250929050565b6107a8816106f5565b82525050565b600081519050919050565b600082825260208201905092915050565b60005b838110156107e85780820151818401526020810190506107cd565b60008484015250505050565b6000601f19601f8301169050919050565b6000610810826107ae565b61081a81856107b9565b935061082a8185602086016107ca565b610833816107f4565b840191505092915050565b600060a0820190506108536000830188610697565b610860602083018761079f565b81810360408301526108728186610805565b905081810360608301526108868185610805565b90506108956080830184610697565b9695505050505050565b600080fd5b600080fd5b7f4e487b7100000000000000000000000000000000000000000000000000000000600052604160045260246000fd5b6108e1826107f4565b810181811067ffffffffffffffff82111715610900576108ff6108a9565b5b80604052505050565b60006109136106c1565b905061091f82826108d8565b919050565b600067ffffffffffffffff82111561093f5761093e6108a9565b5b610948826107f4565b9050602081019050919050565b82818337600083830152505050565b600061097761097284610924565b610909565b905082815260208101848484011115610993576109926108a4565b5b61099e848285610955565b509392505050565b600082601f8301126109bb576109ba61089f565b5b81356109cb848260208601610964565b91505092915050565b600080604083850312156109eb576109ea6106cb565b5b600083013567ffffffffffffffff811115610a0957610a086106d0565b5b610a15858286016109a6565b925050602083013567ffffffffffffffff811115610a3657610a356106d0565b5b610a42858286016109a6565b9150509250929050565b600060208284031215610a6257610a616106cb565b5b6000610a708482850161071e565b91505092915050565b600081519050919050565b600082825260208201905092915050565b6000819050602082019050919050565b610aae8161068d565b82525050565b610abd816106f5565b82525050565b600082825260208201905092915050565b6000610adf826107ae565b610ae98185610ac3565b9350610af98185602086016107ca565b610b02816107f4565b840191505092915050565b600060a083016000830151610b256000860182610aa5565b506020830151610b386020860182610ab4565b5060408301518482036040860152610b508282610ad4565b91505060608301518482036060860152610b6a8282610ad4565b9150506080830151610b7f6080860182610aa5565b508091505092915050565b6000610b968383610b0d565b905092915050565b6000602082019050919050565b6000610bb682610a79565b610bc08185610a84565b935083602082028501610bd285610a95565b8060005b85811015610c0e5784840389528151610bef8582610b8a565b9450610bfa83610b9e565b925060208a01995050600181019050610bd6565b50829750879550505050505092915050565b60006020820190508181036000830152610c3a8184610bab565b905092915050565b7f4e487b7100000000000000000000000000000000000000000000000000000000600052602260045260246000fd5b60006002820490506001821680610c8957607f821691505b602082108103610c9c57610c9b610c42565b5b50919050565b7f547765657420636f6e74656e742063616e6e6f7420626520656d707479000000600082015250565b6000610cd8601d836107b9565b9150610ce382610ca2565b602082019050919050565b60006020820190508181036000830152610d0781610ccb565b9050919050565b60008190508160005260206000209050919050565b60006020601f8301049050919050565b600082821b905092915050565b600060088302610d707fffffffffffffffffffffffffffffffffffffffffffffffffffffffffffffffff82610d33565b610d7a8683610d33565b95508019841693508086168417925050509392505050565b6000819050919050565b6000610db7610db2610dad8461068d565b610d92565b61068d565b9050919050565b6000819050919050565b610dd183610d9c565b610de5610ddd82610dbe565b848454610d40565b825550505050565b600090565b610dfa610ded565b610e05818484610dc8565b505050565b5b81811015610e2957610e1e600082610df2565b600181019050610e0b565b5050565b601f821115610e6e57610e3f81610d0e565b610e4884610d23565b81016020851015610e57578190505b610e6b610e6385610d23565b830182610e0a565b50505b505050565b600082821c905092915050565b6000610e9160001984600802610e73565b1980831691505092915050565b6000610eaa8383610e80565b9150826002028217905092915050565b610ec3826107ae565b67ffffffffffffffff811115610edc57610edb6108a9565b5b610ee68254610c71565b610ef1828285610e2d565b600060209050601f831160018114610f245760008415610f12578287015190505b610f1c8582610e9e565b865550610f84565b601f198416610f3286610d0e565b60005b82811015610f5a57848901518255600182019150602085019450602081019050610f35565b86831015610f775784890151610f73601f891682610e80565b8355505b6001600288020188555050505b505050505050565b60006060820190508181036000830152610fa68186610805565b90508181036020830152610fba8185610805565b9050610fc96040830184610697565b949350505050565b7f4e487b7100000000000000000000000000000000000000000000000000000000600052601160045260246000fd5b600061100b8261068d565b91507fffffffffffffffffffffffffffffffffffffffffffffffffffffffffffffffff820361103d5761103c610fd1565b5b60018201905091905056fea26469706673582212206563fc20485afbf3cce9a94de5c84629f45cc975fc3402d45209bfcf4f52fc5b64736f6c63430008110033",
  "linkReferences": {},
  "deployedLinkReferences": {}
}