{
  "_format": "hh-sol-artifact-1",
  "contractName": "PostTweet",
  "sourceName": "contracts/PostTweet.sol",
  "abi": [
    {
      "anonymous": false,
      "inputs": [
        {
          "indexed": true,
          "internalType": "uint256",
          "name": "tweetId",
          "type": "uint256"
        },
        {
          "indexed": true,
          "internalType": "address",
          "name": "author",
          "type": "address"
        },
        {
          "indexed": false,
          "internalType": "string",
          "name": "authorID",
          "type": "string"
        },
        {
          "indexed": false,
          "internalType": "string",
          "name": "name",
          "type": "string"
        },
        {
          "indexed": false,
          "internalType": "string",
          "name": "content",
          "type": "string"
        },
        {
          "indexed": false,
          "internalType": "string",
          "name": "mediaCID",
          "type": "string"
        },
        {
          "indexed": false,
          "internalType": "uint256",
          "name": "timestamp",
          "type": "uint256"
        }
      ],
      "name": "TweetPosted",
      "type": "event"
    },
    {
      "inputs": [
        {
          "internalType": "uint256",
          "name": "",
          "type": "uint256"
        }
      ],
      "name": "allTweets",
      "outputs": [
        {
          "internalType": "uint256",
          "name": "id",
          "type": "uint256"
        },
        {
          "internalType": "string",
          "name": "name",
          "type": "string"
        },
        {
          "internalType": "address",
          "name": "author",
          "type": "address"
        },
        {
          "internalType": "string",
          "name": "authorID",
          "type": "string"
        },
        {
          "internalType": "string",
          "name": "content",
          "type": "string"
        },
        {
          "internalType": "string",
          "name": "mediaCID",
          "type": "string"
        },
        {
          "internalType": "uint256",
          "name": "timestamp",
          "type": "uint256"
        }
      ],
      "stateMutability": "view",
      "type": "function"
    },
    {
      "inputs": [],
      "name": "getAllTweets",
      "outputs": [
        {
          "components": [
            {
              "internalType": "uint256",
              "name": "id",
              "type": "uint256"
            },
            {
              "internalType": "string",
              "name": "name",
              "type": "string"
            },
            {
              "internalType": "address",
              "name": "author",
              "type": "address"
            },
            {
              "internalType": "string",
              "name": "authorID",
              "type": "string"
            },
            {
              "internalType": "string",
              "name": "content",
              "type": "string"
            },
            {
              "internalType": "string",
              "name": "mediaCID",
              "type": "string"
            },
            {
              "internalType": "uint256",
              "name": "timestamp",
              "type": "uint256"
            }
          ],
          "internalType": "struct PostTweet.Tweet[]",
          "name": "",
          "type": "tuple[]"
        }
      ],
      "stateMutability": "view",
      "type": "function"
    },
    {
      "inputs": [
        {
          "internalType": "address",
          "name": "_user",
          "type": "address"
        }
      ],
      "name": "getTweetsByUser",
      "outputs": [
        {
          "components": [
            {
              "internalType": "uint256",
              "name": "id",
              "type": "uint256"
            },
            {
              "internalType": "string",
              "name": "name",
              "type": "string"
            },
            {
              "internalType": "address",
              "name": "author",
              "type": "address"
            },
            {
              "internalType": "string",
              "name": "authorID",
              "type": "string"
            },
            {
              "internalType": "string",
              "name": "content",
              "type": "string"
            },
            {
              "internalType": "string",
              "name": "mediaCID",
              "type": "string"
            },
            {
              "internalType": "uint256",
              "name": "timestamp",
              "type": "uint256"
            }
          ],
          "internalType": "struct PostTweet.Tweet[]",
          "name": "",
          "type": "tuple[]"
        }
      ],
      "stateMutability": "view",
      "type": "function"
    },
    {
      "inputs": [
        {
          "internalType": "string",
          "name": "_name",
          "type": "string"
        },
        {
          "internalType": "string",
          "name": "_authorID",
          "type": "string"
        },
        {
          "internalType": "string",
          "name": "_content",
          "type": "string"
        },
        {
          "internalType": "string",
          "name": "_mediaCID",
          "type": "string"
        }
      ],
      "name": "postTweet",
      "outputs": [],
      "stateMutability": "nonpayable",
      "type": "function"
    },
    {
      "inputs": [],
      "name": "tweetCounter",
      "outputs": [
        {
          "internalType": "uint256",
          "name": "",
          "type": "uint256"
        }
      ],
      "stateMutability": "view",
      "type": "function"
    },
    {
      "inputs": [
        {
          "internalType": "address",
          "name": "",
          "type": "address"
        },
        {
          "internalType": "uint256",
          "name": "",
          "type": "uint256"
        }
      ],
      "name": "userTweets",
      "outputs": [
        {
          "internalType": "uint256",
          "name": "id",
          "type": "uint256"
        },
        {
          "internalType": "string",
          "name": "name",
          "type": "string"
        },
        {
          "internalType": "address",
          "name": "author",
          "type": "address"
        },
        {
          "internalType": "string",
          "name": "authorID",
          "type": "string"
        },
        {
          "internalType": "string",
          "name": "content",
          "type": "string"
        },
        {
          "internalType": "string",
          "name": "mediaCID",
          "type": "string"
        },
        {
          "internalType": "uint256",
          "name": "timestamp",
          "type": "uint256"
        }
      ],
      "stateMutability": "view",
      "type": "function"
    }
  ],
  "bytecode": "0x608060405234801561001057600080fd5b50611b02806100206000396000f3fe608060405234801561001057600080fd5b50600436106100625760003560e01c806322b13ac8146100675780632e06f3471461008557806353256135146100bb578063707c54e5146100d95780638b94174414610109578063e28350b714610125575b600080fd5b61006f61015b565b60405161007c9190611016565b60405180910390f35b61009f600480360381019061009a91906110cf565b610161565b6040516100b297969594939291906111ae565b60405180910390f35b6100c3610400565b6040516100d09190611414565b60405180910390f35b6100f360048036038101906100ee9190611436565b610711565b6040516101009190611414565b60405180910390f35b610123600480360381019061011e9190611598565b610a61565b005b61013f600480360381019061013a919061166f565b610d6b565b60405161015297969594939291906111ae565b60405180910390f35b60025481565b6001602052816000526040600020818154811061017d57600080fd5b9060005260206000209060070201600091509150508060000154908060010180546101a7906116cb565b80601f01602080910402602001604051908101604052809291908181526020018280546101d3906116cb565b80156102205780601f106101f557610100808354040283529160200191610220565b820191906000526020600020905b81548152906001019060200180831161020357829003601f168201915b5050505050908060020160009054906101000a900473ffffffffffffffffffffffffffffffffffffffff169080600301805461025b906116cb565b80601f0160208091040260200160405190810160405280929190818152602001828054610287906116cb565b80156102d45780601f106102a9576101008083540402835291602001916102d4565b820191906000526020600020905b8154815290600101906020018083116102b757829003601f168201915b5050505050908060040180546102e9906116cb565b80601f0160208091040260200160405190810160405280929190818152602001828054610315906116cb565b80156103625780601f1061033757610100808354040283529160200191610362565b820191906000526020600020905b81548152906001019060200180831161034557829003601f168201915b505050505090806005018054610377906116cb565b80601f01602080910402602001604051908101604052809291908181526020018280546103a3906116cb565b80156103f05780601f106103c5576101008083540402835291602001916103f0565b820191906000526020600020905b8154815290600101906020018083116103d357829003601f168201915b5050505050908060060154905087565b60606000805480602002602001604051908101604052809291908181526020016000905b8282101561070857838290600052602060002090600702016040518060e001604052908160008201548152602001600182018054610461906116cb565b80601f016020809104026020016040519081016040528092919081815260200182805461048d906116cb565b80156104da5780601f106104af576101008083540402835291602001916104da565b820191906000526020600020905b8154815290600101906020018083116104bd57829003601f168201915b505050505081526020016002820160009054906101000a900473ffffffffffffffffffffffffffffffffffffffff1673ffffffffffffffffffffffffffffffffffffffff1673ffffffffffffffffffffffffffffffffffffffff168152602001600382018054610549906116cb565b80601f0160208091040260200160405190810160405280929190818152602001828054610575906116cb565b80156105c25780601f10610597576101008083540402835291602001916105c2565b820191906000526020600020905b8154815290600101906020018083116105a557829003601f168201915b505050505081526020016004820180546105db906116cb565b80601f0160208091040260200160405190810160405280929190818152602001828054610607906116cb565b80156106545780601f1061062957610100808354040283529160200191610654565b820191906000526020600020905b81548152906001019060200180831161063757829003601f168201915b5050505050815260200160058201805461066d906116cb565b80601f0160208091040260200160405190810160405280929190818152602001828054610699906116cb565b80156106e65780601f106106bb576101008083540402835291602001916106e6565b820191906000526020600020905b8154815290600101906020018083116106c957829003601f168201915b5050505050815260200160068201548152505081526020019060010190610424565b50505050905090565b6060600160008373ffffffffffffffffffffffffffffffffffffffff1673ffffffffffffffffffffffffffffffffffffffff168152602001908152602001600020805480602002602001604051908101604052809291908181526020016000905b82821015610a5657838290600052602060002090600702016040518060e0016040529081600082015481526020016001820180546107af906116cb565b80601f01602080910402602001604051908101604052809291908181526020018280546107db906116cb565b80156108285780601f106107fd57610100808354040283529160200191610828565b820191906000526020600020905b81548152906001019060200180831161080b57829003601f168201915b505050505081526020016002820160009054906101000a900473ffffffffffffffffffffffffffffffffffffffff1673ffffffffffffffffffffffffffffffffffffffff1673ffffffffffffffffffffffffffffffffffffffff168152602001600382018054610897906116cb565b80601f01602080910402602001604051908101604052809291908181526020018280546108c3906116cb565b80156109105780601f106108e557610100808354040283529160200191610910565b820191906000526020600020905b8154815290600101906020018083116108f357829003601f168201915b50505050508152602001600482018054610929906116cb565b80601f0160208091040260200160405190810160405280929190818152602001828054610955906116cb565b80156109a25780601f10610977576101008083540402835291602001916109a2565b820191906000526020600020905b81548152906001019060200180831161098557829003601f168201915b505050505081526020016005820180546109bb906116cb565b80601f01602080910402602001604051908101604052809291908181526020018280546109e7906116cb565b8015610a345780601f10610a0957610100808354040283529160200191610a34565b820191906000526020600020905b815481529060010190602001808311610a1757829003601f168201915b5050505050815260200160068201548152505081526020019060010190610772565b505050509050919050565b6000825111610aa5576040517f08c379a0000000000000000000000000000000000000000000000000000000008152600401610a9c90611748565b60405180910390fd5b60006040518060e0016040528060025481526020018681526020013373ffffffffffffffffffffffffffffffffffffffff1681526020018581526020018481526020018381526020014281525090506000819080600181540180825580915050600190039060005260206000209060070201600090919091909150600082015181600001556020820151816001019081610b3f9190611914565b5060408201518160020160006101000a81548173ffffffffffffffffffffffffffffffffffffffff021916908373ffffffffffffffffffffffffffffffffffffffff1602179055506060820151816003019081610b9c9190611914565b506080820151816004019081610bb29190611914565b5060a0820151816005019081610bc89190611914565b5060c082015181600601555050600160003373ffffffffffffffffffffffffffffffffffffffff1673ffffffffffffffffffffffffffffffffffffffff168152602001908152602001600020819080600181540180825580915050600190039060005260206000209060070201600090919091909150600082015181600001556020820151816001019081610c5d9190611914565b5060408201518160020160006101000a81548173ffffffffffffffffffffffffffffffffffffffff021916908373ffffffffffffffffffffffffffffffffffffffff1602179055506060820151816003019081610cba9190611914565b506080820151816004019081610cd09190611914565b5060a0820151816005019081610ce69190611914565b5060c0820151816006015550503373ffffffffffffffffffffffffffffffffffffffff166002547f3f71cf157a4272e3f11e23c0baa00f24e6cb3b8463b887f10c574cbf6e5679aa8688878742604051610d449594939291906119e6565b60405180910390a360026000815480929190610d5f90611a84565b91905055505050505050565b60008181548110610d7b57600080fd5b9060005260206000209060070201600091509050806000015490806001018054610da4906116cb565b80601f0160208091040260200160405190810160405280929190818152602001828054610dd0906116cb565b8015610e1d5780601f10610df257610100808354040283529160200191610e1d565b820191906000526020600020905b815481529060010190602001808311610e0057829003601f168201915b5050505050908060020160009054906101000a900473ffffffffffffffffffffffffffffffffffffffff1690806003018054610e58906116cb565b80601f0160208091040260200160405190810160405280929190818152602001828054610e84906116cb565b8015610ed15780601f10610ea657610100808354040283529160200191610ed1565b820191906000526020600020905b815481529060010190602001808311610eb457829003601f168201915b505050505090806004018054610ee6906116cb565b80601f0160208091040260200160405190810160405280929190818152602001828054610f12906116cb565b8015610f5f5780601f10610f3457610100808354040283529160200191610f5f565b820191906000526020600020905b815481529060010190602001808311610f4257829003601f168201915b505050505090806005018054610f74906116cb565b80601f0160208091040260200160405190810160405280929190818152602001828054610fa0906116cb565b8015610fed5780601f10610fc257610100808354040283529160200191610fed565b820191906000526020600020905b815481529060010190602001808311610fd057829003601f168201915b5050505050908060060154905087565b6000819050919050565b61101081610ffd565b82525050565b600060208201905061102b6000830184611007565b92915050565b6000604051905090565b600080fd5b600080fd5b600073ffffffffffffffffffffffffffffffffffffffff82169050919050565b600061107082611045565b9050919050565b61108081611065565b811461108b57600080fd5b50565b60008135905061109d81611077565b92915050565b6110ac81610ffd565b81146110b757600080fd5b50565b6000813590506110c9816110a3565b92915050565b600080604083850312156110e6576110e561103b565b5b60006110f48582860161108e565b9250506020611105858286016110ba565b9150509250929050565b600081519050919050565b600082825260208201905092915050565b60005b8381101561114957808201518184015260208101905061112e565b60008484015250505050565b6000601f19601f8301169050919050565b60006111718261110f565b61117b818561111a565b935061118b81856020860161112b565b61119481611155565b840191505092915050565b6111a881611065565b82525050565b600060e0820190506111c3600083018a611007565b81810360208301526111d58189611166565b90506111e4604083018861119f565b81810360608301526111f68187611166565b9050818103608083015261120a8186611166565b905081810360a083015261121e8185611166565b905061122d60c0830184611007565b98975050505050505050565b600081519050919050565b600082825260208201905092915050565b6000819050602082019050919050565b61126e81610ffd565b82525050565b600082825260208201905092915050565b60006112908261110f565b61129a8185611274565b93506112aa81856020860161112b565b6112b381611155565b840191505092915050565b6112c781611065565b82525050565b600060e0830160008301516112e56000860182611265565b50602083015184820360208601526112fd8282611285565b915050604083015161131260408601826112be565b506060830151848203606086015261132a8282611285565b915050608083015184820360808601526113448282611285565b91505060a083015184820360a086015261135e8282611285565b91505060c083015161137360c0860182611265565b508091505092915050565b600061138a83836112cd565b905092915050565b6000602082019050919050565b60006113aa82611239565b6113b48185611244565b9350836020820285016113c685611255565b8060005b8581101561140257848403895281516113e3858261137e565b94506113ee83611392565b925060208a019950506001810190506113ca565b50829750879550505050505092915050565b6000602082019050818103600083015261142e818461139f565b905092915050565b60006020828403121561144c5761144b61103b565b5b600061145a8482850161108e565b91505092915050565b600080fd5b600080fd5b7f4e487b7100000000000000000000000000000000000000000000000000000000600052604160045260246000fd5b6114a582611155565b810181811067ffffffffffffffff821117156114c4576114c361146d565b5b80604052505050565b60006114d7611031565b90506114e3828261149c565b919050565b600067ffffffffffffffff8211156115035761150261146d565b5b61150c82611155565b9050602081019050919050565b82818337600083830152505050565b600061153b611536846114e8565b6114cd565b90508281526020810184848401111561155757611556611468565b5b611562848285611519565b509392505050565b600082601f83011261157f5761157e611463565b5b813561158f848260208601611528565b91505092915050565b600080600080608085870312156115b2576115b161103b565b5b600085013567ffffffffffffffff8111156115d0576115cf611040565b5b6115dc8782880161156a565b945050602085013567ffffffffffffffff8111156115fd576115fc611040565b5b6116098782880161156a565b935050604085013567ffffffffffffffff81111561162a57611629611040565b5b6116368782880161156a565b925050606085013567ffffffffffffffff81111561165757611656611040565b5b6116638782880161156a565b91505092959194509250565b6000602082840312156116855761168461103b565b5b6000611693848285016110ba565b91505092915050565b7f4e487b7100000000000000000000000000000000000000000000000000000000600052602260045260246000fd5b600060028204905060018216806116e357607f821691505b6020821081036116f6576116f561169c565b5b50919050565b7f547765657420636f6e74656e742063616e6e6f7420626520656d707479000000600082015250565b6000611732601d8361111a565b915061173d826116fc565b602082019050919050565b6000602082019050818103600083015261176181611725565b9050919050565b60008190508160005260206000209050919050565b60006020601f8301049050919050565b600082821b905092915050565b6000600883026117ca7fffffffffffffffffffffffffffffffffffffffffffffffffffffffffffffffff8261178d565b6117d4868361178d565b95508019841693508086168417925050509392505050565b6000819050919050565b600061181161180c61180784610ffd565b6117ec565b610ffd565b9050919050565b6000819050919050565b61182b836117f6565b61183f61183782611818565b84845461179a565b825550505050565b600090565b611854611847565b61185f818484611822565b505050565b5b818110156118835761187860008261184c565b600181019050611865565b5050565b601f8211156118c85761189981611768565b6118a28461177d565b810160208510156118b1578190505b6118c56118bd8561177d565b830182611864565b50505b505050565b600082821c905092915050565b60006118eb600019846008026118cd565b1980831691505092915050565b600061190483836118da565b9150826002028217905092915050565b61191d8261110f565b67ffffffffffffffff8111156119365761193561146d565b5b61194082546116cb565b61194b828285611887565b600060209050601f83116001811461197e576000841561196c578287015190505b61197685826118f8565b8655506119de565b601f19841661198c86611768565b60005b828110156119b45784890151825560018201915060208501945060208101905061198f565b868310156119d157848901516119cd601f8916826118da565b8355505b6001600288020188555050505b505050505050565b600060a0820190508181036000830152611a008188611166565b90508181036020830152611a148187611166565b90508181036040830152611a288186611166565b90508181036060830152611a3c8185611166565b9050611a4b6080830184611007565b9695505050505050565b7f4e487b7100000000000000000000000000000000000000000000000000000000600052601160045260246000fd5b6000611a8f82610ffd565b91507fffffffffffffffffffffffffffffffffffffffffffffffffffffffffffffffff8203611ac157611ac0611a55565b5b60018201905091905056fea264697066735822122015c896d84461c8c62f2de9bdeba3c6218d80364dbdfa31e4401d58b02ba65b7464736f6c63430008110033",
  "linkReferences": {},
  "deployedLinkReferences": {}
}