{
  "_format": "hh-sol-artifact-1",
  "contractName": "PostTweet",
  "sourceName": "contracts/PostTweet.sol",
  "abi": [
    {
      "inputs": [
        {
          "internalType": "address",
          "name": "_followSystemAddress",
          "type": "address"
        }
      ],
      "stateMutability": "nonpayable",
      "type": "constructor"
    },
    {
      "anonymous": false,
      "inputs": [
        {
          "indexed": true,
          "internalType": "uint256",
          "name": "tweetId",
          "type": "uint256"
        },
        {
          "indexed": true,
          "internalType": "address",
          "name": "author",
          "type": "address"
        },
        {
          "indexed": false,
          "internalType": "string",
          "name": "authorID",
          "type": "string"
        },
        {
          "indexed": false,
          "internalType": "string",
          "name": "name",
          "type": "string"
        },
        {
          "indexed": false,
          "internalType": "string",
          "name": "avatar",
          "type": "string"
        },
        {
          "indexed": false,
          "internalType": "string",
          "name": "content",
          "type": "string"
        },
        {
          "indexed": false,
          "internalType": "string",
          "name": "mediaCID",
          "type": "string"
        },
        {
          "indexed": false,
          "internalType": "uint256",
          "name": "timestamp",
          "type": "uint256"
        },
        {
          "indexed": false,
          "internalType": "bool",
          "name": "isRepost",
          "type": "bool"
        }
      ],
      "name": "TweetPosted",
      "type": "event"
    },
    {
      "inputs": [
        {
          "internalType": "uint256",
          "name": "",
          "type": "uint256"
        }
      ],
      "name": "allTweets",
      "outputs": [
        {
          "internalType": "uint256",
          "name": "id",
          "type": "uint256"
        },
        {
          "internalType": "string",
          "name": "name",
          "type": "string"
        },
        {
          "internalType": "address",
          "name": "author",
          "type": "address"
        },
        {
          "internalType": "string",
          "name": "authorID",
          "type": "string"
        },
        {
          "internalType": "string",
          "name": "avatar",
          "type": "string"
        },
        {
          "internalType": "string",
          "name": "content",
          "type": "string"
        },
        {
          "internalType": "string",
          "name": "mediaCID",
          "type": "string"
        },
        {
          "internalType": "uint256",
          "name": "timestamp",
          "type": "uint256"
        },
        {
          "internalType": "bool",
          "name": "isRepost",
          "type": "bool"
        },
        {
          "internalType": "string",
          "name": "reposter",
          "type": "string"
        },
        {
          "internalType": "string",
          "name": "reposterID",
          "type": "string"
        },
        {
          "internalType": "string",
          "name": "reposterAvatar",
          "type": "string"
        }
      ],
      "stateMutability": "view",
      "type": "function"
    },
    {
      "inputs": [],
      "name": "followSystem",
      "outputs": [
        {
          "internalType": "contract FollowSystem",
          "name": "",
          "type": "address"
        }
      ],
      "stateMutability": "view",
      "type": "function"
    },
    {
      "inputs": [],
      "name": "getAllTweets",
      "outputs": [
        {
          "components": [
            {
              "internalType": "uint256",
              "name": "id",
              "type": "uint256"
            },
            {
              "internalType": "string",
              "name": "name",
              "type": "string"
            },
            {
              "internalType": "address",
              "name": "author",
              "type": "address"
            },
            {
              "internalType": "string",
              "name": "authorID",
              "type": "string"
            },
            {
              "internalType": "string",
              "name": "avatar",
              "type": "string"
            },
            {
              "internalType": "string",
              "name": "content",
              "type": "string"
            },
            {
              "internalType": "string",
              "name": "mediaCID",
              "type": "string"
            },
            {
              "internalType": "uint256",
              "name": "timestamp",
              "type": "uint256"
            },
            {
              "internalType": "bool",
              "name": "isRepost",
              "type": "bool"
            },
            {
              "internalType": "string",
              "name": "reposter",
              "type": "string"
            },
            {
              "internalType": "string",
              "name": "reposterID",
              "type": "string"
            },
            {
              "internalType": "string",
              "name": "reposterAvatar",
              "type": "string"
            }
          ],
          "internalType": "struct PostTweet.Tweet[]",
          "name": "",
          "type": "tuple[]"
        }
      ],
      "stateMutability": "view",
      "type": "function"
    },
    {
      "inputs": [],
      "name": "getTweetsByFollowing",
      "outputs": [
        {
          "components": [
            {
              "internalType": "uint256",
              "name": "id",
              "type": "uint256"
            },
            {
              "internalType": "string",
              "name": "name",
              "type": "string"
            },
            {
              "internalType": "address",
              "name": "author",
              "type": "address"
            },
            {
              "internalType": "string",
              "name": "authorID",
              "type": "string"
            },
            {
              "internalType": "string",
              "name": "avatar",
              "type": "string"
            },
            {
              "internalType": "string",
              "name": "content",
              "type": "string"
            },
            {
              "internalType": "string",
              "name": "mediaCID",
              "type": "string"
            },
            {
              "internalType": "uint256",
              "name": "timestamp",
              "type": "uint256"
            },
            {
              "internalType": "bool",
              "name": "isRepost",
              "type": "bool"
            },
            {
              "internalType": "string",
              "name": "reposter",
              "type": "string"
            },
            {
              "internalType": "string",
              "name": "reposterID",
              "type": "string"
            },
            {
              "internalType": "string",
              "name": "reposterAvatar",
              "type": "string"
            }
          ],
          "internalType": "struct PostTweet.Tweet[]",
          "name": "",
          "type": "tuple[]"
        }
      ],
      "stateMutability": "view",
      "type": "function"
    },
    {
      "inputs": [
        {
          "internalType": "address",
          "name": "_user",
          "type": "address"
        }
      ],
      "name": "getTweetsByUser",
      "outputs": [
        {
          "components": [
            {
              "internalType": "uint256",
              "name": "id",
              "type": "uint256"
            },
            {
              "internalType": "string",
              "name": "name",
              "type": "string"
            },
            {
              "internalType": "address",
              "name": "author",
              "type": "address"
            },
            {
              "internalType": "string",
              "name": "authorID",
              "type": "string"
            },
            {
              "internalType": "string",
              "name": "avatar",
              "type": "string"
            },
            {
              "internalType": "string",
              "name": "content",
              "type": "string"
            },
            {
              "internalType": "string",
              "name": "mediaCID",
              "type": "string"
            },
            {
              "internalType": "uint256",
              "name": "timestamp",
              "type": "uint256"
            },
            {
              "internalType": "bool",
              "name": "isRepost",
              "type": "bool"
            },
            {
              "internalType": "string",
              "name": "reposter",
              "type": "string"
            },
            {
              "internalType": "string",
              "name": "reposterID",
              "type": "string"
            },
            {
              "internalType": "string",
              "name": "reposterAvatar",
              "type": "string"
            }
          ],
          "internalType": "struct PostTweet.Tweet[]",
          "name": "",
          "type": "tuple[]"
        }
      ],
      "stateMutability": "view",
      "type": "function"
    },
    {
      "inputs": [
        {
          "internalType": "string",
          "name": "_name",
          "type": "string"
        },
        {
          "internalType": "string",
          "name": "_authorID",
          "type": "string"
        },
        {
          "internalType": "string",
          "name": "_avatar",
          "type": "string"
        },
        {
          "internalType": "string",
          "name": "_content",
          "type": "string"
        },
        {
          "internalType": "string",
          "name": "_mediaCID",
          "type": "string"
        }
      ],
      "name": "postTweet",
      "outputs": [],
      "stateMutability": "nonpayable",
      "type": "function"
    },
    {
      "inputs": [
        {
          "internalType": "uint256",
          "name": "tweetId",
          "type": "uint256"
        },
        {
          "internalType": "string",
          "name": "_name",
          "type": "string"
        },
        {
          "internalType": "string",
          "name": "_authorID",
          "type": "string"
        },
        {
          "internalType": "string",
          "name": "_avatar",
          "type": "string"
        }
      ],
      "name": "repostTweet",
      "outputs": [],
      "stateMutability": "nonpayable",
      "type": "function"
    },
    {
      "inputs": [],
      "name": "tweetCounter",
      "outputs": [
        {
          "internalType": "uint256",
          "name": "",
          "type": "uint256"
        }
      ],
      "stateMutability": "view",
      "type": "function"
    },
    {
      "inputs": [
        {
          "internalType": "address",
          "name": "",
          "type": "address"
        },
        {
          "internalType": "uint256",
          "name": "",
          "type": "uint256"
        }
      ],
      "name": "userTweets",
      "outputs": [
        {
          "internalType": "uint256",
          "name": "id",
          "type": "uint256"
        },
        {
          "internalType": "string",
          "name": "name",
          "type": "string"
        },
        {
          "internalType": "address",
          "name": "author",
          "type": "address"
        },
        {
          "internalType": "string",
          "name": "authorID",
          "type": "string"
        },
        {
          "internalType": "string",
          "name": "avatar",
          "type": "string"
        },
        {
          "internalType": "string",
          "name": "content",
          "type": "string"
        },
        {
          "internalType": "string",
          "name": "mediaCID",
          "type": "string"
        },
        {
          "internalType": "uint256",
          "name": "timestamp",
          "type": "uint256"
        },
        {
          "internalType": "bool",
          "name": "isRepost",
          "type": "bool"
        },
        {
          "internalType": "string",
          "name": "reposter",
          "type": "string"
        },
        {
          "internalType": "string",
          "name": "reposterID",
          "type": "string"
        },
        {
          "internalType": "string",
          "name": "reposterAvatar",
          "type": "string"
        }
      ],
      "stateMutability": "view",
      "type": "function"
    }
  ],
  "bytecode": "0x60803461007657601f62002d4f38819003918201601f19168301916001600160401b0383118484101761007b5780849260209460405283398101031261007657516001600160a01b0381169081900361007657600080546001600160a01b031916919091179055604051612cbd9081620000928239f35b600080fd5b634e487b7160e01b600052604160045260246000fdfe608080604052600436101561001357600080fd5b60003560e01c90816322b13ac814611d97575080632e06f34714611d285780635325613514611cba578063707c54e514611c3057806384ed429514611097578063c661376614610448578063e28350b71461038a578063ea4aaa09146100b05763f209f6d21461008257600080fd5b346100ab5760003660031901126100ab576000546040516001600160a01b039091168152602090f35b600080fd5b346100ab5760003660031901126100ab576000805460405163d8236dff60e01b815233600482015260249290916001600160a01b03919083908590829085165afa91821561037e576000926102e2575b50600090815b8351831015610158578161011a8486612c53565b5116600052600260205260406000205481018091116101435761013d9092612b4b565b91610106565b84634e487b7160e01b60005260116004526000fd5b839061016381612c3c565b906101716040519283611e74565b808252610180601f1991612c3c565b0160005b81811061027a5750506000916000925b815184101561026857846101a88584612c53565b51166000526020916002835260406000208054906101c582612c3c565b946101d36040519687611e74565b8286526000918252808220918187015b84821061024b5750505050506000915b83518310156102355761022961022f9161020d8587612c53565b516102188289612c53565b526102238188612c53565b50612b4b565b92612b4b565b916101f3565b959250936102439150612b4b565b929093610194565b600c8360019261025a87612b70565b8152019401910190926101e3565b604051806102768582612037565b0390f35b60209060405161028981611e3d565b600081526060839080828401526000604084015280808401528060808401528060a08401528060c0840152600060e084015260006101008401528061012084015280610140840152610160830152828601015201610184565b9091503d806000833e6102f58183611e74565b81019060209081818403126100ab578051906001600160401b0382116100ab57019180601f840112156100ab57825161032d81612c3c565b9361033b6040519586611e74565b818552838086019260051b8201019283116100ab578301905b82821061036657505050509083610100565b815186811681036100ab578152908301908301610354565b6040513d6000823e3d90fd5b346100ab5760203660031901126100ab576004356001548110156100ab576001600052600c602060002091020180546102766103c860018401611e95565b9260018060a01b03600282015416906103e360038201611e95565b6103ef60048301611e95565b6103fb60058401611e95565b61040760068501611e95565b60078501549160ff6008870154169361042260098801611e95565b9561043b600b610434600a8b01611e95565b9901611e95565b986040519c8d9c8d611f7b565b346100ab5760a03660031901126100ab576004356001600160401b0381116100ab576104789036906004016121e8565b6024356001600160401b0381116100ab576104979036906004016121e8565b906044356001600160401b0381116100ab576104b79036906004016121e8565b6064356001600160401b0381116100ab576104d69036906004016121e8565b6084356001600160401b0381116100ab576104f59036906004016121e8565b91815115611052576003546040519061050d82611e3d565b81528460208201523360408201528560608201528160808201528260a08201528360c08201524260e0820152600061010082015260405161054d81611e59565b6000815261012082015260405161056381611e59565b6000815261014082015260405161057981611e59565b60008152610160820152600154600160401b811015610a76578060016105a29201600155611dc8565b61103c578151815560208201518051906001600160401b038211610a765781906105cf6001850154611e03565b601f8111610fe9575b50602090601f8311600114610f7757600092610f6c575b50508160011b916000199060031b1c19161760018201555b60408201516002820180546001600160a01b0319166001600160a01b039290921691909117905560608201518051906001600160401b038211610a765781906106536003850154611e03565b601f8111610f19575b50602090601f8311600114610ea757600092610e9c575b50508160011b916000199060031b1c19161760038201555b60808201518051906001600160401b038211610a765781906106b06004850154611e03565b601f8111610e49575b50602090601f8311600114610dd757600092610dcc575b50508160011b916000199060031b1c19161760048201555b60a08201518051906001600160401b038211610a7657819061070d6005850154611e03565b601f8111610d79575b50602090601f8311600114610d0757600092610cfc575b50508160011b916000199060031b1c19161760058201555b60c08201518051906001600160401b038211610a7657819061076a6006850154611e03565b601f8111610ca9575b50602090601f8311600114610c3757600092610c2c575b50508160011b916000199060031b1c19161760068201555b60e0820151600782015560088101610100830151151560ff801983541691161790556101208201518051906001600160401b038211610a765781906107ea6009850154611e03565b601f8111610bd9575b50602090601f8311600114610b6757600092610b5c575b50508160011b916000199060031b1c19161760098201555b6101408201518051906001600160401b038211610a76578190610848600a850154611e03565b601f8111610b09575b50602090601f8311600114610a9757600092610a8c575b50508160011b916000199060031b1c191617600a8201555b6101608201518051906001600160401b038211610a76576108a4600b840154611e03565b601f8111610a2f575b50602090601f831160011461099757600080516020612c688339815191529561091b61096e966109879c9a96600b87610960986109449f9d986109529860009261098c575b50508160011b916000199060031b1c1916179101555b3360005260026020526040600020612203565b600354998a986109366040519b60e08d5260e08d0190611f3b565b908b820360208d0152611f3b565b9089820360408b0152611f3b565b908782036060890152611f3b565b908582036080870152611f3b565b924260a0820152600060c08201528033940390a3612b4b565b600355005b0151905038806108f2565b90600b840160005260206000209160005b601f1985168110610a1757509561091b61096e966109879c9a96600b6001886109449f9d9861095298600080516020612c688339815191529e6109609c601f198116106109fe575b505050811b01910155610908565b015160001960f88460031b161c191690553880806109f0565b919260206001819286850151815501940192016109a8565b600b84016000526020600020601f840160051c810160208510610a6f575b601f830160051c82018110610a635750506108ad565b60008155600101610a4d565b5080610a4d565b634e487b7160e01b600052604160045260246000fd5b015190508980610868565b9250600a84016000526020600020906000935b601f1984168510610aee576001945083601f19811610610ad5575b505050811b01600a820155610880565b015160001960f88460031b161c19169055898080610ac5565b81810151835560209485019460019093019290910190610aaa565b909150600a84016000526020600020601f840160051c810160208510610b55575b90849392915b601f830160051c82018110610b46575050610851565b60008155859450600101610b30565b5080610b2a565b01519050898061080a565b9250600984016000526020600020906000935b601f1984168510610bbe576001945083601f19811610610ba5575b505050811b016009820155610822565b015160001960f88460031b161c19169055898080610b95565b81810151835560209485019460019093019290910190610b7a565b909150600984016000526020600020601f840160051c810160208510610c25575b90849392915b601f830160051c82018110610c165750506107f3565b60008155859450600101610c00565b5080610bfa565b01519050898061078a565b9250600684016000526020600020906000935b601f1984168510610c8e576001945083601f19811610610c75575b505050811b0160068201556107a2565b015160001960f88460031b161c19169055898080610c65565b81810151835560209485019460019093019290910190610c4a565b909150600684016000526020600020601f840160051c810160208510610cf5575b90849392915b601f830160051c82018110610ce6575050610773565b60008155859450600101610cd0565b5080610cca565b01519050898061072d565b9250600584016000526020600020906000935b601f1984168510610d5e576001945083601f19811610610d45575b505050811b016005820155610745565b015160001960f88460031b161c19169055898080610d35565b81810151835560209485019460019093019290910190610d1a565b909150600584016000526020600020601f840160051c810160208510610dc5575b90849392915b601f830160051c82018110610db6575050610716565b60008155859450600101610da0565b5080610d9a565b0151905089806106d0565b9250600484016000526020600020906000935b601f1984168510610e2e576001945083601f19811610610e15575b505050811b0160048201556106e8565b015160001960f88460031b161c19169055898080610e05565b81810151835560209485019460019093019290910190610dea565b909150600484016000526020600020601f840160051c810160208510610e95575b90849392915b601f830160051c82018110610e865750506106b9565b60008155859450600101610e70565b5080610e6a565b015190508980610673565b9250600384016000526020600020906000935b601f1984168510610efe576001945083601f19811610610ee5575b505050811b01600382015561068b565b015160001960f88460031b161c19169055898080610ed5565b81810151835560209485019460019093019290910190610eba565b909150600384016000526020600020601f840160051c810160208510610f65575b90849392915b601f830160051c82018110610f5657505061065c565b60008155859450600101610f40565b5080610f3a565b0151905089806105ef565b9250600184016000526020600020906000935b601f1984168510610fce576001945083601f19811610610fb5575b505050811b016001820155610607565b015160001960f88460031b161c19169055898080610fa5565b81810151835560209485019460019093019290910190610f8a565b909150600184016000526020600020601f840160051c810160208510611035575b90849392915b601f830160051c820181106110265750506105d8565b60008155859450600101611010565b508061100a565b634e487b7160e01b600052600060045260246000fd5b60405162461bcd60e51b815260206004820152601d60248201527f547765657420636f6e74656e742063616e6e6f7420626520656d7074790000006044820152606490fd5b346100ab5760803660031901126100ab576004356024356001600160401b0381116100ab576110ca903690600401612175565b90916044356001600160401b0381116100ab576110eb903690600401612175565b906064356001600160401b0381116100ab5761110b903690600401612175565b91909260035496878611611bf8576001549586811015611be257600160005261115890600c027fb10e2d527612073b26eecdfd717e6a320cf44b4afac2b0732d9fcbe2b7fa0cf601612b70565b966020880151606089015160808a015160a08b01519160c08c015193604051809e61118282611e3d565b8152602001523360408e015260608d015260808c015260a08b015260c08a01524260e08a015260016101008a01526111bc913691906121a2565b61012088015236906111cd926121a2565b61014086015236906111de926121a2565b610160840152600160401b811015610a76578060016112009201600155611dc8565b91909161103c578251825560208301519283516001600160401b038111610a765761122e6001850154611e03565b601f8111611b9b575b506020601f8211600114611b2c578192939495600092611b21575b50508160011b916000199060031b1c19161760018401555b60408101516002840180546001600160a01b0319166001600160a01b0392909216919091179055606081015180519093906001600160401b038111610a76576112b66003830154611e03565b601f8111611ada575b506020601f8211600114611a6b578192939495600092611a60575b50508160011b916000199060031b1c19161760038201555b60808201519283516001600160401b038111610a76576113156004840154611e03565b601f8111611a19575b506020601f82116001146119aa57819293949560009261199f575b50508160011b916000199060031b1c19161760048301555b60a08301519283516001600160401b038111610a76576113746005850154611e03565b601f8111611958575b506020601f82116001146118e95781929394956000926118de575b50508160011b916000199060031b1c19161760058401555b60c08101519283516001600160401b038111610a76576113d36006830154611e03565b601f8111611897575b506020601f821160011461182857819293949560009261181d575b50508160011b916000199060031b1c19161760068201555b60e0820151600782015560088101610100830151151560ff801983541691161790556101208201519283516001600160401b038111610a76576114556009840154611e03565b601f81116117d6575b506020601f821160011461176757819293949560009261175c575b50508160011b916000199060031b1c19161760098301555b6101408301519283516001600160401b038111610a76576114b5600a850154611e03565b601f8111611715575b506020601f82116001146116a657819293949560009261169b575b50508160011b916000199060031b1c191617600a8401555b6101608101519283516001600160401b038111610a7657611515600b830154611e03565b601f8111611654575b506020601f82116001146115de5781611569949392600b92610987986000926115d35750508160011b916000199060031b1c1916179101553360005260026020526040600020612203565b6003549081600080516020612c688339815191526115ba606084015193610960602082015191610952608082015161094460c060a0850151940151956109366040519b60e08d5260e08d0190611f3b565b924260a0820152600160c08201528033940390a3612b4b565b0151905088806108f2565b600b830160005260206000209560005b601f198416811061163c57508261098797600b93600193611569989796601f1981161061162357505050811b01910155610908565b015160001960f88460031b161c191690558880806109f0565b828201518855600190970196602092830192016115ee565b600b83016000526020600020601f830160051c810160208410611694575b601f830160051c8201811061168857505061151e565b60008155600101611672565b5080611672565b0151905085806114d9565b600a850160005260206000209060005b601f19841681106116fd575060019394959683601f198116106116e4575b505050811b01600a8401556114f1565b015160001960f88460031b161c191690558580806116d4565b9091602060018192858b0151815501930191016116b6565b600a85016000526020600020601f830160051c810160208410611755575b601f830160051c820181106117495750506114be565b60008155600101611733565b5080611733565b015190508580611479565b6009840160005260206000209060005b601f19841681106117be575060019394959683601f198116106117a5575b505050811b016009830155611491565b015160001960f88460031b161c19169055858080611795565b9091602060018192858b015181550193019101611777565b600984016000526020600020601f830160051c810160208410611816575b601f830160051c8201811061180a57505061145e565b600081556001016117f4565b50806117f4565b0151905085806113f7565b6006830160005260206000209060005b601f198416811061187f575060019394959683601f19811610611866575b505050811b01600682015561140f565b015160001960f88460031b161c19169055858080611856565b9091602060018192858b015181550193019101611838565b600683016000526020600020601f830160051c8101602084106118d7575b601f830160051c820181106118cb5750506113dc565b600081556001016118b5565b50806118b5565b015190508580611398565b6005850160005260206000209060005b601f1984168110611940575060019394959683601f19811610611927575b505050811b0160058401556113b0565b015160001960f88460031b161c19169055858080611917565b9091602060018192858b0151815501930191016118f9565b600585016000526020600020601f830160051c810160208410611998575b601f830160051c8201811061198c57505061137d565b60008155600101611976565b5080611976565b015190508580611339565b6004840160005260206000209060005b601f1984168110611a01575060019394959683601f198116106119e8575b505050811b016004830155611351565b015160001960f88460031b161c191690558580806119d8565b9091602060018192858b0151815501930191016119ba565b600484016000526020600020601f830160051c810160208410611a59575b601f830160051c82018110611a4d57505061131e565b60008155600101611a37565b5080611a37565b0151905085806112da565b6003830160005260206000209060005b601f1984168110611ac2575060019394959683601f19811610611aa9575b505050811b0160038201556112f2565b015160001960f88460031b161c19169055858080611a99565b9091602060018192858b015181550193019101611a7b565b600383016000526020600020601f830160051c810160208410611b1a575b601f830160051c82018110611b0e5750506112bf565b60008155600101611af8565b5080611af8565b015190508580611252565b6001850160005260206000209060005b601f1984168110611b83575060019394959683601f19811610611b6a575b505050811b01600184015561126a565b015160001960f88460031b161c19169055858080611b5a565b9091602060018192858b015181550193019101611b3c565b600185016000526020600020601f830160051c810160208410611bdb575b601f830160051c82018110611bcf575050611237565b60008155600101611bb9565b5080611bb9565b634e487b7160e01b600052603260045260246000fd5b60405162461bcd60e51b815260206004820152601060248201526f125b9d985b1a59081d1dd9595d08125160821b6044820152606490fd5b346100ab576020806003193601126100ab576001600160a01b03611c52611db2565b166000526002815260406000208054611c6a81612c3c565b91611c786040519384611e74565b8183526000908152838120938084015b838310611c9d57604051806102768782612037565b600c82600192611cac89612b70565b815201960192019194611c88565b346100ab5760003660031901126100ab5760018054611cd881612c3c565b90611ce66040519283611e74565b808252600083815260208082208185015b848410611d0c57604051806102768882612037565b600c838892611d1a85612b70565b815201920193019290611cf7565b346100ab5760403660031901126100ab57611d41611db2565b6001600160a01b0390811660009081526002602052604090208054602435908110156100ab57611d7091611de7565b50610276815491611d8360018201611e95565b93600282015416906103e360038201611e95565b346100ab5760003660031901126100ab576020906003548152f35b600435906001600160a01b03821682036100ab57565b600154811015611be2576001600052600c602060002091020190600090565b8054821015611be257600052600c602060002091020190600090565b90600182811c92168015611e33575b6020831014611e1d57565b634e487b7160e01b600052602260045260246000fd5b91607f1691611e12565b61018081019081106001600160401b03821117610a7657604052565b602081019081106001600160401b03821117610a7657604052565b90601f801991011681019081106001600160401b03821117610a7657604052565b9060405191826000825492611ea984611e03565b908184526001948581169081600014611f185750600114611ed5575b5050611ed392500383611e74565b565b9093915060005260209081600020936000915b818310611f00575050611ed393508201013880611ec5565b85548884018501529485019487945091830191611ee8565b915050611ed394506020925060ff191682840152151560051b8201013880611ec5565b919082519283825260005b848110611f67575050826000602080949584010152601f8019910116010190565b602081830181015184830182015201611f46565b9a9795611fde8c6120349e9c97611fd0611ffa976120259e99611fb36120169e99611fec998752610180806020890152870190611f3b565b6001600160a01b0390921660408601528482036060860152611f3b565b916080818403910152611f3b565b8c810360a08e015290611f3b565b908a820360c08c0152611f3b565b9260e08901521515610100880152868203610120880152611f3b565b90848203610140860152611f3b565b91610160818403910152611f3b565b90565b602080820190808352835180925260409283810182858560051b8401019601946000925b85841061206c575050505050505090565b909192939495968580612164600193603f198682030188528b518051825261215061213c6121116120fe6120eb6120d88d6120b58b8901518c61018080918d01528b0190611f3b565b908d8060a01b03818a015116908a0152606080890151908a8303908b0152611f3b565b60808088015190898303908a0152611f3b565b60a0808701519088830390890152611f3b565b60c0808601519087830390880152611f3b565b60e0808501519086015261010080850151151590860152610120808501519086830390870152611f3b565b610140808401519085830390860152611f3b565b916101608092015191818403910152611f3b565b99019401940192959493919061205b565b9181601f840112156100ab578235916001600160401b0383116100ab57602083818601950101116100ab57565b9291926001600160401b038211610a7657604051916121cb601f8201601f191660200184611e74565b8294818452818301116100ab578281602093846000960137010152565b9080601f830112156100ab57816020612034933591016121a2565b8054600160401b811015610a7657612222906001928382018155611de7565b61103c578251815560208084015180516001600160401b03939085820190858111610a7657806122528354611e03565b94601f95868111612af9575b508690868311600114612a9657600092612a8b575b5050600019600383901b1c191690871b1790555b60408601516002820180546001600160a01b0319166001600160a01b039290921691909117905560608601518051600394918584019190878211610a765781906122d18454611e03565b878111612a3a575b5084908783116001146129d8576000926129cd575b505060001982881b1c191690881b1790555b60049182810160808901518051908882116129b85781906123218454611e03565b888111612967575b508590888311600114612905576000926128fa575b505060001982891b1c191690891b1790555b60059081810160a08a01518051908982116126965781906123718454611e03565b8981116128ab575b50869089831160011461284057600092612835575b5050600019828a1b1c1916908a1b1790555b6006810160c08a01518051908982116126965781906123bf8454611e03565b8981116127e6575b50869089831160011461277b57600092612770575b5050600019828a1b1c1916908a1b1790555b60e08901516007820155600881016101008a0151151560ff80198354169116179055600981016101208a01518051908982116126965781906124308454611e03565b898111612721575b5086908983116001146126b6576000926126ab575b5050600019828a1b1c1916908a1b1790555b600a81016101408a01518051908982116126965761247d8354611e03565b888111612652575b5085908883116001146125db579180600b949261016096946000926125d0575b5050600019828c1b1c1916908c1b1790555b019801519283519687116125bb57506124d08854611e03565b90848211612577575b5050809285116001146125115750938394918492600095612506575b50501b92600019911b1c1916179055565b0151935038806124f5565b92919084601f1981168860005285600020956000905b8983831061255d5750505010612543575b50505050811b019055565b01519060f884600019921b161c1916905538808080612538565b858701518955909701969485019488935090810190612527565b88600052826000209085808901821c830193858a106125b2575b01901c019087905b8281106125a657506124d9565b60008155018790612599565b93508293612591565b604190634e487b7160e01b6000525260246000fd5b0151905038806124a5565b8b9291601f1983169185600052886000209260005b8a828210612633575050916101609795939185600b9896941061261b575b505050811b0190556124b7565b0151600019838e1b60f8161c1916905538808061260e565b91929395968291958786015181550195019301908e95949392916125f0565b836000528660002089808501881c82019289861061268d575b01871c01908c905b828110612681575050612485565b60008155018c90612673565b9250819261266b565b604187634e487b7160e01b6000525260246000fd5b01519050388061244d565b908c9350601f1983169185600052886000209260005b8a82821061270257505084116126ea575b505050811b01905561245f565b0151600019838c1b60f8161c191690553880806126dd565b91929395968291958786015181550195019301908e95949392916126cc565b909150836000528660002089808501881c820192898610612767575b918e918695949301891c01915b828110612758575050612438565b600081558594508e910161274a565b9250819261273d565b0151905038806123dc565b908c9350601f1983169185600052886000209260005b8a8282106127c757505084116127af575b505050811b0190556123ee565b0151600019838c1b60f8161c191690553880806127a2565b91929395968291958786015181550195019301908e9594939291612791565b909150836000528660002089808501881c82019289861061282c575b918e918695949301891c01915b82811061281d5750506123c7565b600081558594508e910161280f565b92508192612802565b01519050388061238e565b908c9350601f1983169185600052886000209260005b8a82821061288c5750508411612874575b505050811b0190556123a0565b0151600019838c1b60f8161c19169055388080612867565b91929395968291958786015181550195019301908e9594939291612856565b909150836000528660002089808501881c8201928986106128f1575b918e918695949301891c01915b8281106128e2575050612379565b600081558594508e91016128d4565b925081926128c7565b01519050388061233e565b908b9350601f1983169185600052876000209260005b898282106129515750508411612939575b505050811b019055612350565b0151600019838b1b60f8161c1916905538808061292c565b8385015186558f9790950194938401930161291b565b90915083600052856000208880850160051c8201928886106129af575b918d91869594930160051c01915b8281106129a0575050612329565b600081558594508d9101612992565b92508192612984565b604186634e487b7160e01b6000525260246000fd5b0151905038806122ee565b908a9350601f1983169185600052866000209260005b88828210612a245750508411612a0c575b505050811b019055612300565b0151600019838a1b60f8161c191690553880806129ff565b8385015186558e979095019493840193016129ee565b90915083600052846000208780850160051c820192878610612a82575b918c91869594930160051c01915b828110612a735750506122d9565b600081558594508c9101612a65565b92508192612a57565b015190503880612273565b90899350601f1983169185600052886000209260005b8a828210612ae35750508411612aca575b505050811b019055612287565b015160001960f88460031b161c19169055388080612abd565b8385015186558d97909501949384019301612aac565b90915060008481528781208780860160051c8201938a8710612b42575b918c9187969594930160051c01925b838110612b345750505061225e565b8281558695508c9101612b25565b93508193612b16565b6000198114612b5a5760010190565b634e487b7160e01b600052601160045260246000fd5b90604051612b7d81611e3d565b610160612c37600b839580548552612b9760018201611e95565b602086015260028101546001600160a01b03166040860152612bbb60038201611e95565b6060860152612bcc60048201611e95565b6080860152612bdd60058201611e95565b60a0860152612bee60068201611e95565b60c0860152600781015460e086015260ff6008820154161515610100860152612c1960098201611e95565b610120860152612c2b600a8201611e95565b61014086015201611e95565b910152565b6001600160401b038111610a765760051b60200190565b8051821015611be25760209160051b01019056fe86a2174f6d99d2793dada3dfed99b1375953ca3593950e7b4615f48a1b4872b0a2646970667358221220cde1c4f33441506b7dc9a8c7bae631d735a5ebf5295ef4b81c6e0f76b915474764736f6c63430008110033",
  "linkReferences": {},
  "deployedLinkReferences": {}
}