{
  "_format": "hh-sol-artifact-1",
  "contractName": "PostInteractions",
  "sourceName": "contracts/PostInteractions.sol",
  "abi": [
    {
      "inputs": [
        {
          "internalType": "address",
          "name": "_postTweetAddress",
          "type": "address"
        }
      ],
      "stateMutability": "nonpayable",
      "type": "constructor"
    },
    {
      "anonymous": false,
      "inputs": [
        {
          "indexed": true,
          "internalType": "uint256",
          "name": "commentId",
          "type": "uint256"
        },
        {
          "indexed": true,
          "internalType": "address",
          "name": "commenter",
          "type": "address"
        },
        {
          "indexed": true,
          "internalType": "address",
          "name": "author",
          "type": "address"
        },
        {
          "indexed": false,
          "internalType": "uint256",
          "name": "tweetId",
          "type": "uint256"
        },
        {
          "indexed": false,
          "internalType": "string",
          "name": "name",
          "type": "string"
        },
        {
          "indexed": false,
          "internalType": "string",
          "name": "commenterID",
          "type": "string"
        },
        {
          "indexed": false,
          "internalType": "string",
          "name": "avatar",
          "type": "string"
        },
        {
          "indexed": false,
          "internalType": "string",
          "name": "content",
          "type": "string"
        },
        {
          "indexed": false,
          "internalType": "string",
          "name": "mediaCID",
          "type": "string"
        },
        {
          "indexed": false,
          "internalType": "uint256",
          "name": "timestamp",
          "type": "uint256"
        }
      ],
      "name": "CommentAdded",
      "type": "event"
    },
    {
      "anonymous": false,
      "inputs": [
        {
          "indexed": true,
          "internalType": "address",
          "name": "user",
          "type": "address"
        },
        {
          "indexed": true,
          "internalType": "address",
          "name": "author",
          "type": "address"
        },
        {
          "indexed": true,
          "internalType": "uint256",
          "name": "tweetId",
          "type": "uint256"
        }
      ],
      "name": "TweetLiked",
      "type": "event"
    },
    {
      "anonymous": false,
      "inputs": [
        {
          "indexed": true,
          "internalType": "address",
          "name": "user",
          "type": "address"
        },
        {
          "indexed": true,
          "internalType": "address",
          "name": "author",
          "type": "address"
        },
        {
          "indexed": true,
          "internalType": "uint256",
          "name": "tweetId",
          "type": "uint256"
        }
      ],
      "name": "TweetUnliked",
      "type": "event"
    },
    {
      "inputs": [
        {
          "internalType": "address",
          "name": "author",
          "type": "address"
        },
        {
          "internalType": "uint256",
          "name": "tweetId",
          "type": "uint256"
        },
        {
          "internalType": "string",
          "name": "_name",
          "type": "string"
        },
        {
          "internalType": "string",
          "name": "_commenterID",
          "type": "string"
        },
        {
          "internalType": "string",
          "name": "_avatar",
          "type": "string"
        },
        {
          "internalType": "string",
          "name": "_content",
          "type": "string"
        },
        {
          "internalType": "string",
          "name": "_mediaCID",
          "type": "string"
        }
      ],
      "name": "addComment",
      "outputs": [],
      "stateMutability": "nonpayable",
      "type": "function"
    },
    {
      "inputs": [],
      "name": "commentCounter",
      "outputs": [
        {
          "internalType": "uint256",
          "name": "",
          "type": "uint256"
        }
      ],
      "stateMutability": "view",
      "type": "function"
    },
    {
      "inputs": [
        {
          "internalType": "address",
          "name": "",
          "type": "address"
        },
        {
          "internalType": "uint256",
          "name": "",
          "type": "uint256"
        },
        {
          "internalType": "uint256",
          "name": "",
          "type": "uint256"
        }
      ],
      "name": "comments",
      "outputs": [
        {
          "internalType": "uint256",
          "name": "id",
          "type": "uint256"
        },
        {
          "internalType": "string",
          "name": "name",
          "type": "string"
        },
        {
          "internalType": "address",
          "name": "author",
          "type": "address"
        },
        {
          "internalType": "string",
          "name": "authorID",
          "type": "string"
        },
        {
          "internalType": "string",
          "name": "avatar",
          "type": "string"
        },
        {
          "internalType": "string",
          "name": "content",
          "type": "string"
        },
        {
          "internalType": "string",
          "name": "mediaCID",
          "type": "string"
        },
        {
          "internalType": "uint256",
          "name": "timestamp",
          "type": "uint256"
        }
      ],
      "stateMutability": "view",
      "type": "function"
    },
    {
      "inputs": [
        {
          "internalType": "address",
          "name": "author",
          "type": "address"
        },
        {
          "internalType": "uint256",
          "name": "tweetId",
          "type": "uint256"
        }
      ],
      "name": "getComments",
      "outputs": [
        {
          "components": [
            {
              "internalType": "uint256",
              "name": "id",
              "type": "uint256"
            },
            {
              "internalType": "string",
              "name": "name",
              "type": "string"
            },
            {
              "internalType": "address",
              "name": "author",
              "type": "address"
            },
            {
              "internalType": "string",
              "name": "authorID",
              "type": "string"
            },
            {
              "internalType": "string",
              "name": "avatar",
              "type": "string"
            },
            {
              "internalType": "string",
              "name": "content",
              "type": "string"
            },
            {
              "internalType": "string",
              "name": "mediaCID",
              "type": "string"
            },
            {
              "internalType": "uint256",
              "name": "timestamp",
              "type": "uint256"
            }
          ],
          "internalType": "struct PostInteractions.Comment[]",
          "name": "",
          "type": "tuple[]"
        }
      ],
      "stateMutability": "view",
      "type": "function"
    },
    {
      "inputs": [
        {
          "internalType": "address",
          "name": "author",
          "type": "address"
        },
        {
          "internalType": "uint256",
          "name": "tweetId",
          "type": "uint256"
        }
      ],
      "name": "getTotalLikes",
      "outputs": [
        {
          "internalType": "uint256",
          "name": "",
          "type": "uint256"
        }
      ],
      "stateMutability": "view",
      "type": "function"
    },
    {
      "inputs": [
        {
          "internalType": "address",
          "name": "author",
          "type": "address"
        },
        {
          "internalType": "uint256",
          "name": "tweetId",
          "type": "uint256"
        }
      ],
      "name": "isLiked",
      "outputs": [
        {
          "internalType": "bool",
          "name": "",
          "type": "bool"
        }
      ],
      "stateMutability": "view",
      "type": "function"
    },
    {
      "inputs": [
        {
          "internalType": "address",
          "name": "",
          "type": "address"
        },
        {
          "internalType": "uint256",
          "name": "",
          "type": "uint256"
        }
      ],
      "name": "likeCount",
      "outputs": [
        {
          "internalType": "uint256",
          "name": "",
          "type": "uint256"
        }
      ],
      "stateMutability": "view",
      "type": "function"
    },
    {
      "inputs": [
        {
          "internalType": "address",
          "name": "author",
          "type": "address"
        },
        {
          "internalType": "uint256",
          "name": "tweetId",
          "type": "uint256"
        }
      ],
      "name": "likeTweet",
      "outputs": [],
      "stateMutability": "nonpayable",
      "type": "function"
    },
    {
      "inputs": [
        {
          "internalType": "address",
          "name": "",
          "type": "address"
        },
        {
          "internalType": "address",
          "name": "",
          "type": "address"
        },
        {
          "internalType": "uint256",
          "name": "",
          "type": "uint256"
        }
      ],
      "name": "likes",
      "outputs": [
        {
          "internalType": "bool",
          "name": "",
          "type": "bool"
        }
      ],
      "stateMutability": "view",
      "type": "function"
    },
    {
      "inputs": [],
      "name": "postTweet",
      "outputs": [
        {
          "internalType": "contract PostTweet",
          "name": "",
          "type": "address"
        }
      ],
      "stateMutability": "view",
      "type": "function"
    },
    {
      "inputs": [
        {
          "internalType": "address",
          "name": "author",
          "type": "address"
        },
        {
          "internalType": "uint256",
          "name": "tweetId",
          "type": "uint256"
        }
      ],
      "name": "unlikeTweet",
      "outputs": [],
      "stateMutability": "nonpayable",
      "type": "function"
    }
  ],
  "bytecode": "0x60803461007457601f61133238819003918201601f19168301916001600160401b038311848410176100795780849260209460405283398101031261007457516001600160a01b0381169081900361007457600080546001600160a01b0319169190911790556040516112a290816100908239f35b600080fd5b634e487b7160e01b600052604160045260246000fdfe608080604052600436101561001357600080fd5b60003560e01c908163066e146e14610ff0575080630ae9a33d1461075a578063346d971d146107015780633d9b569f146105ed578063493f41d9146105c4578063633782161461048f578063a749e29c14610427578063b8c0a1ef14610409578063ddbe7afc146103c1578063f3e6cb38146102ac5763fdbe1d6d1461009857600080fd5b346102a75760403660031901126102a7576001600160a01b03806100ba611033565b166000526003906020828152604060002060243560005281526040600020908154906001600160401b03821161029157929390604051906005926101028683861b01846110fe565b81835260009485528585208684019591865b8484106101fc575050505050604051938085019181865251809252604082818701941b86010193926000965b83881061014d5786860387f35b90919293948380600192603f198a82030186528851908151815260e0806101e56101d26101bf6101ac61018d89890151610100808c8b01528901906111c5565b8c60408a01511660408901526060808a015190898303908a01526111c5565b60808089015190888303908901526111c5565b60a08088015190878303908801526111c5565b60c08087015190868303908701526111c5565b930151910152970193019701969093929193610140565b6008896001928c61025e8b9e9d9a9b60405192610218846110e2565b89548452610227888b0161111f565b8685015260028a0154166040840152610241888a0161111f565b606084015261025260048a0161111f565b6080840152880161111f565b60a082015261026f6006880161111f565b60c0820152600787015460e08201528152019301930192919895949798610114565b634e487b7160e01b600052604160045260246000fd5b600080fd5b346102a75760603660031901126102a7576102c5611033565b60443560018060a01b038092166000526003602052604060002060243560005260205260406000209081548110156102a75761030091611076565b508054906103b76103136001830161111f565b93600283015416916103a961032a6003830161111f565b9361039b61033a6004850161111f565b61038d6103496005870161111f565b9360076103586006890161111f565b9701549861037a6040519c8d9c8d5260208d61010091829101528d01906111c5565b9160408c01528a820360608c01526111c5565b9088820360808a01526111c5565b9086820360a08801526111c5565b9084820360c08601526111c5565b9060e08301520390f35b346102a75760403660031901126102a7576001600160a01b036103e2611033565b16600052600260205260406000206024356000526020526020604060002054604051908152f35b346102a75760003660031901126102a7576020600454604051908152f35b346102a75760603660031901126102a757610440611033565b6001600160a01b0360243581811692908390036102a7571660005260016020526040600020906000526020526040600020604435600052602052602060ff604060002054166040519015158152f35b346102a75760403660031901126102a7576104a8611033565b602435903360005260206001815260406000209160018060a01b031691826000528152604060002083600052815260ff60406000205416610576573360005260018152604060002082600052815260406000208360005281526040600020600160ff19825416179055816000526002815260406000209083600052526040600020805490600182018092116105605755337f7c4b06baee4c2050d672eef0084a1baaf8d938d7f9eddc476d9a89847171b537600080a4005b634e487b7160e01b600052601160045260246000fd5b6084906040519062461bcd60e51b82526004820152602160248201527f596f75206861766520616c7265616479206c696b6564207468697320747765656044820152601d60fa1b6064820152fd5b346102a75760003660031901126102a7576000546040516001600160a01b039091168152602090f35b346102a75760403660031901126102a757610606611033565b602435903360005260206001815260406000209160018060a01b031691826000528152604060002083600052815260ff60406000205416156106bd57336000526001815260406000208260005281526040600020836000528152604060002060ff19815416905581600052600281526040600020908360005252604060002080549060001982019182116105605755337fb58ed4b89ca4d829a75de89912b2e43d4953c28753d53e5303767d2959380761600080a4005b6064906040519062461bcd60e51b82526004820152601e60248201527f596f752068617665206e6f74206c696b656420746869732074776565742e00006044820152fd5b346102a75760403660031901126102a75761071a611033565b33600052600160205260406000209060018060a01b03166000526020526040600020602435600052602052602060ff604060002054166040519015158152f35b346102a75760e03660031901126102a757610773611033565b6044356001600160401b0381116102a757610792903690600401611049565b90916064356001600160401b0381116102a7576107b3903690600401611049565b93906084356001600160401b0381116102a7576107d4903690600401611049565b9060a4356001600160401b0381116102a7576107f4903690600401611049565b909160c4356001600160401b0381116102a757610815903690600401611049565b9490958315610fb1576004546040519061082e826110e2565b815261083b368c8b611205565b6020820152336040820152610851368d84611205565b6060820152610861368486611205565b6080820152610871368688611205565b60a082015261088136888a611205565b60c08201524260e08201526001600160a01b038a166000908152600360209081526040808320602435845290915290208054600160401b811015610291576108ce91600182018155611076565b919091610f9b578051825560208101518051906001600160401b0382116102915781906108fe60018601546110a8565b601f8111610f48575b50602090601f8311600114610ed657600092610ecb575b50508160011b916000199060031b1c19161760018301555b60408101516002830180546001600160a01b0319166001600160a01b039290921691909117905560608101518051906001600160401b03821161029157819061098260038601546110a8565b601f8111610e78575b50602090601f8311600114610e0657600092610dfb575b50508160011b916000199060031b1c19161760038301555b60808101518051906001600160401b0382116102915781906109df60048601546110a8565b601f8111610da8575b50602090601f8311600114610d3657600092610d2b575b50508160011b916000199060031b1c19161760048301555b60a08101518051906001600160401b038211610291578190610a3c60058601546110a8565b601f8111610cd8575b50602090601f8311600114610c6657600092610c5b575b50508160011b916000199060031b1c19161760058301555b60c08101518051906001600160401b03821161029157610a9760068501546110a8565b601f8111610c14575b50602090601f8311600114610ba15760e093929160009183610b96575b50508160011b916000199060031b1c19161760068401555b015190600701556004549a8b986040519b6024358d5260208d0160e0905260e08d0190610b019261124b565b908b820360408d0152610b139261124b565b9089820360608b0152610b259261124b565b908782036080890152610b379261124b565b9085820360a0870152610b499261124b565b4260c08501526001600160a01b039092169233927fcde38bf70668e6f3eb2c791d01115ce7f81a42ebbbe75cc1414bbbc7907486a9919081900390a4600019811461056057600101600455005b015190503880610abd565b906006850160005260206000209160005b601f1985168110610bfc575091839160019360e09695601f19811610610be3575b505050811b016006840155610ad5565b015160001960f88460031b161c19169055388080610bd3565b91926020600181928685015181550194019201610bb2565b600685016000526020600020601f840160051c810160208510610c54575b601f830160051c82018110610c48575050610aa0565b60008155600101610c32565b5080610c32565b015190508f80610a5c565b9250600585016000526020600020906000935b601f1984168510610cbd576001945083601f19811610610ca4575b505050811b016005830155610a74565b015160001960f88460031b161c191690558f8080610c94565b81810151835560209485019460019093019290910190610c79565b909150600585016000526020600020601f840160051c810160208510610d24575b90849392915b601f830160051c82018110610d15575050610a45565b60008155859450600101610cff565b5080610cf9565b015190508f806109ff565b9250600485016000526020600020906000935b601f1984168510610d8d576001945083601f19811610610d74575b505050811b016004830155610a17565b015160001960f88460031b161c191690558f8080610d64565b81810151835560209485019460019093019290910190610d49565b909150600485016000526020600020601f840160051c810160208510610df4575b90849392915b601f830160051c82018110610de55750506109e8565b60008155859450600101610dcf565b5080610dc9565b015190508f806109a2565b9250600385016000526020600020906000935b601f1984168510610e5d576001945083601f19811610610e44575b505050811b0160038301556109ba565b015160001960f88460031b161c191690558f8080610e34565b81810151835560209485019460019093019290910190610e19565b909150600385016000526020600020601f840160051c810160208510610ec4575b90849392915b601f830160051c82018110610eb557505061098b565b60008155859450600101610e9f565b5080610e99565b015190508f8061091e565b9250600185016000526020600020906000935b601f1984168510610f2d576001945083601f19811610610f14575b505050811b016001830155610936565b015160001960f88460031b161c191690558f8080610f04565b81810151835560209485019460019093019290910190610ee9565b909150600185016000526020600020601f840160051c810160208510610f94575b90849392915b601f830160051c82018110610f85575050610907565b60008155859450600101610f6f565b5080610f69565b634e487b7160e01b600052600060045260246000fd5b60405162461bcd60e51b8152602060048201526017602482015276436f6d6d656e742063616e6e6f7420626520656d70747960481b6044820152606490fd5b346102a75760403660031901126102a7576020906001600160a01b03611014611033565b1660005260028252604060002060243560005282526040600020548152f35b600435906001600160a01b03821682036102a757565b9181601f840112156102a7578235916001600160401b0383116102a757602083818601950101116102a757565b80548210156110925760005260206000209060031b0190600090565b634e487b7160e01b600052603260045260246000fd5b90600182811c921680156110d8575b60208310146110c257565b634e487b7160e01b600052602260045260246000fd5b91607f16916110b7565b61010081019081106001600160401b0382111761029157604052565b90601f801991011681019081106001600160401b0382111761029157604052565b9060405191826000825492611133846110a8565b9081845260019485811690816000146111a2575060011461115f575b505061115d925003836110fe565b565b9093915060005260209081600020936000915b81831061118a57505061115d9350820101388061114f565b85548884018501529485019487945091830191611172565b91505061115d94506020925060ff191682840152151560051b820101388061114f565b919082519283825260005b8481106111f1575050826000602080949584010152601f8019910116010190565b6020818301810151848301820152016111d0565b9291926001600160401b038211610291576040519161122e601f8201601f1916602001846110fe565b8294818452818301116102a7578281602093846000960137010152565b908060209392818452848401376000828201840152601f01601f191601019056fea2646970667358221220e7c115267ced81fdb15bb00663c9805e2ce3e5916bc195b80d765e736d149a7d64736f6c63430008110033",
  "linkReferences": {},
  "deployedLinkReferences": {}
}