{
  "_format": "hh-sol-artifact-1",
  "contractName": "PostTweet",
  "sourceName": "contracts/PostTweet.sol",
  "abi": [
    {
      "inputs": [
        {
          "internalType": "address",
          "name": "_followSystemAddress",
          "type": "address"
        }
      ],
      "stateMutability": "nonpayable",
      "type": "constructor"
    },
    {
      "anonymous": false,
      "inputs": [
        {
          "indexed": true,
          "internalType": "uint256",
          "name": "tweetId",
          "type": "uint256"
        },
        {
          "indexed": true,
          "internalType": "address",
          "name": "author",
          "type": "address"
        },
        {
          "indexed": false,
          "internalType": "string",
          "name": "authorID",
          "type": "string"
        },
        {
          "indexed": false,
          "internalType": "string",
          "name": "name",
          "type": "string"
        },
        {
          "indexed": false,
          "internalType": "string",
          "name": "avatar",
          "type": "string"
        },
        {
          "indexed": false,
          "internalType": "string",
          "name": "content",
          "type": "string"
        },
        {
          "indexed": false,
          "internalType": "string",
          "name": "mediaCID",
          "type": "string"
        },
        {
          "indexed": false,
          "internalType": "uint256",
          "name": "timestamp",
          "type": "uint256"
        },
        {
          "indexed": false,
          "internalType": "bool",
          "name": "isRepost",
          "type": "bool"
        }
      ],
      "name": "TweetPosted",
      "type": "event"
    },
    {
      "inputs": [
        {
          "internalType": "uint256",
          "name": "",
          "type": "uint256"
        }
      ],
      "name": "allTweets",
      "outputs": [
        {
          "internalType": "uint256",
          "name": "id",
          "type": "uint256"
        },
        {
          "internalType": "string",
          "name": "name",
          "type": "string"
        },
        {
          "internalType": "address",
          "name": "author",
          "type": "address"
        },
        {
          "internalType": "string",
          "name": "authorID",
          "type": "string"
        },
        {
          "internalType": "string",
          "name": "avatar",
          "type": "string"
        },
        {
          "internalType": "string",
          "name": "content",
          "type": "string"
        },
        {
          "internalType": "string",
          "name": "mediaCID",
          "type": "string"
        },
        {
          "internalType": "uint256",
          "name": "timestamp",
          "type": "uint256"
        },
        {
          "internalType": "bool",
          "name": "isRepost",
          "type": "bool"
        },
        {
          "internalType": "string",
          "name": "reposter",
          "type": "string"
        },
        {
          "internalType": "string",
          "name": "reposterID",
          "type": "string"
        },
        {
          "internalType": "string",
          "name": "reposterAvatar",
          "type": "string"
        }
      ],
      "stateMutability": "view",
      "type": "function"
    },
    {
      "inputs": [],
      "name": "followSystem",
      "outputs": [
        {
          "internalType": "contract FollowSystem",
          "name": "",
          "type": "address"
        }
      ],
      "stateMutability": "view",
      "type": "function"
    },
    {
      "inputs": [],
      "name": "getAllTweets",
      "outputs": [
        {
          "components": [
            {
              "internalType": "uint256",
              "name": "id",
              "type": "uint256"
            },
            {
              "internalType": "string",
              "name": "name",
              "type": "string"
            },
            {
              "internalType": "address",
              "name": "author",
              "type": "address"
            },
            {
              "internalType": "string",
              "name": "authorID",
              "type": "string"
            },
            {
              "internalType": "string",
              "name": "avatar",
              "type": "string"
            },
            {
              "internalType": "string",
              "name": "content",
              "type": "string"
            },
            {
              "internalType": "string",
              "name": "mediaCID",
              "type": "string"
            },
            {
              "internalType": "uint256",
              "name": "timestamp",
              "type": "uint256"
            },
            {
              "internalType": "bool",
              "name": "isRepost",
              "type": "bool"
            },
            {
              "internalType": "string",
              "name": "reposter",
              "type": "string"
            },
            {
              "internalType": "string",
              "name": "reposterID",
              "type": "string"
            },
            {
              "internalType": "string",
              "name": "reposterAvatar",
              "type": "string"
            }
          ],
          "internalType": "struct PostTweet.Tweet[]",
          "name": "",
          "type": "tuple[]"
        }
      ],
      "stateMutability": "view",
      "type": "function"
    },
    {
      "inputs": [
        {
          "internalType": "address",
          "name": "author",
          "type": "address"
        },
        {
          "internalType": "uint256",
          "name": "tweetId",
          "type": "uint256"
        }
      ],
      "name": "getTotalReposts",
      "outputs": [
        {
          "internalType": "uint256",
          "name": "",
          "type": "uint256"
        }
      ],
      "stateMutability": "view",
      "type": "function"
    },
    {
      "inputs": [],
      "name": "getTweetsByFollowing",
      "outputs": [
        {
          "components": [
            {
              "internalType": "uint256",
              "name": "id",
              "type": "uint256"
            },
            {
              "internalType": "string",
              "name": "name",
              "type": "string"
            },
            {
              "internalType": "address",
              "name": "author",
              "type": "address"
            },
            {
              "internalType": "string",
              "name": "authorID",
              "type": "string"
            },
            {
              "internalType": "string",
              "name": "avatar",
              "type": "string"
            },
            {
              "internalType": "string",
              "name": "content",
              "type": "string"
            },
            {
              "internalType": "string",
              "name": "mediaCID",
              "type": "string"
            },
            {
              "internalType": "uint256",
              "name": "timestamp",
              "type": "uint256"
            },
            {
              "internalType": "bool",
              "name": "isRepost",
              "type": "bool"
            },
            {
              "internalType": "string",
              "name": "reposter",
              "type": "string"
            },
            {
              "internalType": "string",
              "name": "reposterID",
              "type": "string"
            },
            {
              "internalType": "string",
              "name": "reposterAvatar",
              "type": "string"
            }
          ],
          "internalType": "struct PostTweet.Tweet[]",
          "name": "",
          "type": "tuple[]"
        }
      ],
      "stateMutability": "view",
      "type": "function"
    },
    {
      "inputs": [
        {
          "internalType": "address",
          "name": "_user",
          "type": "address"
        }
      ],
      "name": "getTweetsByUser",
      "outputs": [
        {
          "components": [
            {
              "internalType": "uint256",
              "name": "id",
              "type": "uint256"
            },
            {
              "internalType": "string",
              "name": "name",
              "type": "string"
            },
            {
              "internalType": "address",
              "name": "author",
              "type": "address"
            },
            {
              "internalType": "string",
              "name": "authorID",
              "type": "string"
            },
            {
              "internalType": "string",
              "name": "avatar",
              "type": "string"
            },
            {
              "internalType": "string",
              "name": "content",
              "type": "string"
            },
            {
              "internalType": "string",
              "name": "mediaCID",
              "type": "string"
            },
            {
              "internalType": "uint256",
              "name": "timestamp",
              "type": "uint256"
            },
            {
              "internalType": "bool",
              "name": "isRepost",
              "type": "bool"
            },
            {
              "internalType": "string",
              "name": "reposter",
              "type": "string"
            },
            {
              "internalType": "string",
              "name": "reposterID",
              "type": "string"
            },
            {
              "internalType": "string",
              "name": "reposterAvatar",
              "type": "string"
            }
          ],
          "internalType": "struct PostTweet.Tweet[]",
          "name": "",
          "type": "tuple[]"
        }
      ],
      "stateMutability": "view",
      "type": "function"
    },
    {
      "inputs": [
        {
          "internalType": "address",
          "name": "user",
          "type": "address"
        },
        {
          "internalType": "address",
          "name": "author",
          "type": "address"
        },
        {
          "internalType": "uint256",
          "name": "tweetId",
          "type": "uint256"
        }
      ],
      "name": "hasUserReposted",
      "outputs": [
        {
          "internalType": "bool",
          "name": "",
          "type": "bool"
        }
      ],
      "stateMutability": "view",
      "type": "function"
    },
    {
      "inputs": [
        {
          "internalType": "string",
          "name": "_name",
          "type": "string"
        },
        {
          "internalType": "string",
          "name": "_authorID",
          "type": "string"
        },
        {
          "internalType": "string",
          "name": "_avatar",
          "type": "string"
        },
        {
          "internalType": "string",
          "name": "_content",
          "type": "string"
        },
        {
          "internalType": "string",
          "name": "_mediaCID",
          "type": "string"
        }
      ],
      "name": "postTweet",
      "outputs": [],
      "stateMutability": "nonpayable",
      "type": "function"
    },
    {
      "inputs": [
        {
          "internalType": "address",
          "name": "",
          "type": "address"
        },
        {
          "internalType": "uint256",
          "name": "",
          "type": "uint256"
        }
      ],
      "name": "repostCount",
      "outputs": [
        {
          "internalType": "uint256",
          "name": "",
          "type": "uint256"
        }
      ],
      "stateMutability": "view",
      "type": "function"
    },
    {
      "inputs": [
        {
          "internalType": "uint256",
          "name": "tweetId",
          "type": "uint256"
        },
        {
          "internalType": "string",
          "name": "_name",
          "type": "string"
        },
        {
          "internalType": "string",
          "name": "_authorID",
          "type": "string"
        },
        {
          "internalType": "string",
          "name": "_avatar",
          "type": "string"
        }
      ],
      "name": "repostTweet",
      "outputs": [],
      "stateMutability": "nonpayable",
      "type": "function"
    },
    {
      "inputs": [],
      "name": "tweetCounter",
      "outputs": [
        {
          "internalType": "uint256",
          "name": "",
          "type": "uint256"
        }
      ],
      "stateMutability": "view",
      "type": "function"
    },
    {
      "inputs": [
        {
          "internalType": "address",
          "name": "",
          "type": "address"
        },
        {
          "internalType": "address",
          "name": "",
          "type": "address"
        },
        {
          "internalType": "uint256",
          "name": "",
          "type": "uint256"
        }
      ],
      "name": "userReposts",
      "outputs": [
        {
          "internalType": "bool",
          "name": "",
          "type": "bool"
        }
      ],
      "stateMutability": "view",
      "type": "function"
    },
    {
      "inputs": [
        {
          "internalType": "address",
          "name": "",
          "type": "address"
        },
        {
          "internalType": "uint256",
          "name": "",
          "type": "uint256"
        }
      ],
      "name": "userTweets",
      "outputs": [
        {
          "internalType": "uint256",
          "name": "id",
          "type": "uint256"
        },
        {
          "internalType": "string",
          "name": "name",
          "type": "string"
        },
        {
          "internalType": "address",
          "name": "author",
          "type": "address"
        },
        {
          "internalType": "string",
          "name": "authorID",
          "type": "string"
        },
        {
          "internalType": "string",
          "name": "avatar",
          "type": "string"
        },
        {
          "internalType": "string",
          "name": "content",
          "type": "string"
        },
        {
          "internalType": "string",
          "name": "mediaCID",
          "type": "string"
        },
        {
          "internalType": "uint256",
          "name": "timestamp",
          "type": "uint256"
        },
        {
          "internalType": "bool",
          "name": "isRepost",
          "type": "bool"
        },
        {
          "internalType": "string",
          "name": "reposter",
          "type": "string"
        },
        {
          "internalType": "string",
          "name": "reposterID",
          "type": "string"
        },
        {
          "internalType": "string",
          "name": "reposterAvatar",
          "type": "string"
        }
      ],
      "stateMutability": "view",
      "type": "function"
    }
  ],
  "bytecode": "0x60803461007657601f62002f6238819003918201601f19168301916001600160401b0383118484101761007b5780849260209460405283398101031261007657516001600160a01b0381169081900361007657600080546001600160a01b031916919091179055604051612ed09081620000928239f35b600080fd5b634e487b7160e01b600052604160045260246000fdfe608080604052600436101561001357600080fd5b60003560e01c90816322b13ac814611f83575080632e06f34714611f145780635325613514611ea65780635ed449091461111a5780636df86ccd14610474578063707c54e514611e1c57806384ed429514611162578063867c27681461111a578063c6613766146104c3578063c7e5d03714610474578063e28350b7146103b6578063ea4aaa09146100dc5763f209f6d2146100ae57600080fd5b346100d75760003660031901126100d7576000546040516001600160a01b039091168152602090f35b600080fd5b346100d75760003660031901126100d7576000805460405163d8236dff60e01b815233600482015260249290916001600160a01b03919083908590829085165afa9182156103aa5760009261030e575b50600090815b835183101561018457816101468486612e66565b51166000526002602052604060002054810180911161016f576101699092612d74565b91610132565b84634e487b7160e01b60005260116004526000fd5b839061018f81612e4f565b9061019d6040519283612060565b8082526101ac601f1991612e4f565b0160005b8181106102a65750506000916000925b815184101561029457846101d48584612e66565b51166000526020916002835260406000208054906101f182612e4f565b946101ff6040519687612060565b8286526000918252808220918187015b8482106102775750505050506000915b83518310156102615761025561025b916102398587612e66565b516102448289612e66565b5261024f8188612e66565b50612d74565b92612d74565b9161021f565b9592509361026f9150612d74565b9290936101c0565b600c8360019261028687612d83565b81520194019101909261020f565b604051806102a28582612223565b0390f35b6020906040516102b581612029565b600081526060839080828401526000604084015280808401528060808401528060a08401528060c0840152600060e0840152600061010084015280610120840152806101408401526101608301528286010152016101b0565b9091503d806000833e6103218183612060565b81019060209081818403126100d7578051906001600160401b0382116100d757019180601f840112156100d757825161035981612e4f565b936103676040519586612060565b818552838086019260051b8201019283116100d7578301905b8282106103925750505050908361012c565b815186811681036100d7578152908301908301610380565b6040513d6000823e3d90fd5b346100d75760203660031901126100d7576004356001548110156100d7576001600052600c602060002091020180546102a26103f460018401612081565b9260018060a01b036002820154169061040f60038201612081565b61041b60048301612081565b61042760058401612081565b61043360068501612081565b60078501549160ff6008870154169361044e60098801612081565b95610467600b610460600a8b01612081565b9901612081565b986040519c8d9c8d612167565b346100d75761048236612361565b9160018060a01b03809116600052600460205260406000209116600052602052604060002090600052602052602060ff604060002054166040519015158152f35b346100d75760a03660031901126100d7576004356001600160401b0381116100d7576104f3903690600401612409565b6024356001600160401b0381116100d757610512903690600401612409565b906044356001600160401b0381116100d757610532903690600401612409565b6064356001600160401b0381116100d757610551903690600401612409565b6084356001600160401b0381116100d757610570903690600401612409565b918151156110d5576005546040519061058882612029565b81528460208201523360408201528560608201528160808201528260a08201528360c08201524260e082015260006101008201526040516105c881612045565b600081526101208201526040516105de81612045565b600081526101408201526040516105f481612045565b60008152610160820152600154600160401b811015610af95780600161061d9201600155611fb4565b6110bf578151815560208201518051906001600160401b038211610af957819061064a6001850154611fef565b601f811161106c575b50602090601f8311600114610ffa57600092610fef575b50508160011b916000199060031b1c19161760018201555b60408201516002820180546001600160a01b0319166001600160a01b039290921691909117905560608201518051906001600160401b038211610af95781906106ce6003850154611fef565b601f8111610f9c575b50602090601f8311600114610f2a57600092610f1f575b50508160011b916000199060031b1c19161760038201555b60808201518051906001600160401b038211610af957819061072b6004850154611fef565b601f8111610ecc575b50602090601f8311600114610e5a57600092610e4f575b50508160011b916000199060031b1c19161760048201555b60a08201518051906001600160401b038211610af95781906107886005850154611fef565b601f8111610dfc575b50602090601f8311600114610d8a57600092610d7f575b50508160011b916000199060031b1c19161760058201555b60c08201518051906001600160401b038211610af95781906107e56006850154611fef565b601f8111610d2c575b50602090601f8311600114610cba57600092610caf575b50508160011b916000199060031b1c19161760068201555b60e082015160078201556108476101008301511515600883019060ff801983541691151516179055565b6101208201518051906001600160401b038211610af957819061086d6009850154611fef565b601f8111610c5c575b50602090601f8311600114610bea57600092610bdf575b50508160011b916000199060031b1c19161760098201555b6101408201518051906001600160401b038211610af95781906108cb600a850154611fef565b601f8111610b8c575b50602090601f8311600114610b1a57600092610b0f575b50508160011b916000199060031b1c191617600a8201555b6101608201518051906001600160401b038211610af957610927600b840154611fef565b601f8111610ab2575b50602090601f8311600114610a1a57600080516020612e7b8339815191529561099e6109f196610a0a9c9a96600b876109e3986109c79f9d986109d598600092610a0f575b50508160011b916000199060031b1c1916179101555b3360005260026020526040600020612424565b600554998a986109b96040519b60e08d5260e08d0190612127565b908b820360208d0152612127565b9089820360408b0152612127565b908782036060890152612127565b908582036080870152612127565b924260a0820152600060c08201528033940390a3612d74565b600555005b015190503880610975565b90600b840160005260206000209160005b601f1985168110610a9a57509561099e6109f196610a0a9c9a96600b6001886109c79f9d986109d598600080516020612e7b8339815191529e6109e39c601f19811610610a81575b505050811b0191015561098b565b015160001960f88460031b161c19169055388080610a73565b91926020600181928685015181550194019201610a2b565b600b84016000526020600020601f840160051c810160208510610af2575b601f830160051c82018110610ae6575050610930565b60008155600101610ad0565b5080610ad0565b634e487b7160e01b600052604160045260246000fd5b0151905089806108eb565b9250600a84016000526020600020906000935b601f1984168510610b71576001945083601f19811610610b58575b505050811b01600a820155610903565b015160001960f88460031b161c19169055898080610b48565b81810151835560209485019460019093019290910190610b2d565b909150600a84016000526020600020601f840160051c810160208510610bd8575b90849392915b601f830160051c82018110610bc95750506108d4565b60008155859450600101610bb3565b5080610bad565b01519050898061088d565b9250600984016000526020600020906000935b601f1984168510610c41576001945083601f19811610610c28575b505050811b0160098201556108a5565b015160001960f88460031b161c19169055898080610c18565b81810151835560209485019460019093019290910190610bfd565b909150600984016000526020600020601f840160051c810160208510610ca8575b90849392915b601f830160051c82018110610c99575050610876565b60008155859450600101610c83565b5080610c7d565b015190508980610805565b9250600684016000526020600020906000935b601f1984168510610d11576001945083601f19811610610cf8575b505050811b01600682015561081d565b015160001960f88460031b161c19169055898080610ce8565b81810151835560209485019460019093019290910190610ccd565b909150600684016000526020600020601f840160051c810160208510610d78575b90849392915b601f830160051c82018110610d695750506107ee565b60008155859450600101610d53565b5080610d4d565b0151905089806107a8565b9250600584016000526020600020906000935b601f1984168510610de1576001945083601f19811610610dc8575b505050811b0160058201556107c0565b015160001960f88460031b161c19169055898080610db8565b81810151835560209485019460019093019290910190610d9d565b909150600584016000526020600020601f840160051c810160208510610e48575b90849392915b601f830160051c82018110610e39575050610791565b60008155859450600101610e23565b5080610e1d565b01519050898061074b565b9250600484016000526020600020906000935b601f1984168510610eb1576001945083601f19811610610e98575b505050811b016004820155610763565b015160001960f88460031b161c19169055898080610e88565b81810151835560209485019460019093019290910190610e6d565b909150600484016000526020600020601f840160051c810160208510610f18575b90849392915b601f830160051c82018110610f09575050610734565b60008155859450600101610ef3565b5080610eed565b0151905089806106ee565b9250600384016000526020600020906000935b601f1984168510610f81576001945083601f19811610610f68575b505050811b016003820155610706565b015160001960f88460031b161c19169055898080610f58565b81810151835560209485019460019093019290910190610f3d565b909150600384016000526020600020601f840160051c810160208510610fe8575b90849392915b601f830160051c82018110610fd95750506106d7565b60008155859450600101610fc3565b5080610fbd565b01519050898061066a565b9250600184016000526020600020906000935b601f1984168510611051576001945083601f19811610611038575b505050811b016001820155610682565b015160001960f88460031b161c19169055898080611028565b8181015183556020948501946001909301929091019061100d565b909150600184016000526020600020601f840160051c8101602085106110b8575b90849392915b601f830160051c820181106110a9575050610653565b60008155859450600101611093565b508061108d565b634e487b7160e01b600052600060045260246000fd5b60405162461bcd60e51b815260206004820152601d60248201527f547765657420636f6e74656e742063616e6e6f7420626520656d7074790000006044820152606490fd5b346100d75760403660031901126100d7576001600160a01b0361113b611f9e565b16600052600360205260406000206024356000526020526020604060002054604051908152f35b346100d75760803660031901126100d7576024356001600160401b0381116100d757611192903690600401612396565b6044356001600160401b0381116100d7576111b1903690600401612396565b92906064356001600160401b0381116100d7576111d2903690600401612396565b909160055495866004351015611de45760015494856004351015611dce576001600052611225600435600c027fb10e2d527612073b26eecdfd717e6a320cf44b4afac2b0732d9fcbe2b7fa0cf601612d83565b96336000526004602052604060002060018060a01b0360408a015116600052602052604060002060043560005260205260ff60406000205416611d7b576020880151606089015160808a015160a08b01519160c08c015193604051809e61128b82612029565b8152602001523360408e015260608d015260808c015260a08b015260c08a01524260e08a015260016101008a01526112c5913691906123c3565b61012088015236906112d6926123c3565b61014086015236906112e7926123c3565b610160840152600160401b811015610af9578060016113099201600155611fb4565b9190916110bf578251825560208301519283516001600160401b038111610af9576113376001850154611fef565b601f8111611d34575b506020601f8211600114611cc5578192939495600092611cba575b50508160011b916000199060031b1c19161760018401555b60408101516002840180546001600160a01b0319166001600160a01b0392909216919091179055606081015180519093906001600160401b038111610af9576113bf6003830154611fef565b601f8111611c73575b506020601f8211600114611c04578192939495600092611bf9575b50508160011b916000199060031b1c19161760038201555b60808201519283516001600160401b038111610af95761141e6004840154611fef565b601f8111611bb2575b506020601f8211600114611b43578192939495600092611b38575b50508160011b916000199060031b1c19161760048301555b60a08301519283516001600160401b038111610af95761147d6005850154611fef565b601f8111611af1575b506020601f8211600114611a82578192939495600092611a77575b50508160011b916000199060031b1c19161760058401555b60c08101519283516001600160401b038111610af9576114dc6006830154611fef565b601f8111611a30575b506020601f82116001146119c15781929394956000926119b6575b50508160011b916000199060031b1c19161760068201555b60e082015160078201556115426101008301511515600883019060ff801983541691151516179055565b6101208201519283516001600160401b038111610af9576115666009840154611fef565b601f811161196f575b506020601f82116001146119005781929394956000926118f5575b50508160011b916000199060031b1c19161760098301555b6101408301519283516001600160401b038111610af9576115c6600a850154611fef565b601f81116118ae575b506020601f821160011461183f578192939495600092611834575b50508160011b916000199060031b1c191617600a8401555b6101608101519283516001600160401b038111610af957611626600b830154611fef565b601f81116117ed575b506020601f821160011461177b579080600b9261167696976000926117705750508160011b916000199060031b1c1916179101553360005260026020526040600020612424565b336000526004602052604060002060018060a01b0360408301511660005260205260406000206004356000526020526040600020600160ff1982541617905560018060a01b036040820151166000526003602052604060002060043560005260205260406000209081546001810180911161175a57610a0a92556005549081600080516020612e7b8339815191526117416060840151936109e36020820151916109d560808201516109c760c060a0850151940151956109b96040519b60e08d5260e08d0190612127565b924260a0820152600160c08201528033940390a3612d74565b634e487b7160e01b600052601160045260246000fd5b015190508780610975565b600b830160005260206000209560005b601f19841681106117d55750916116769596600192600b9483601f198116106117bc57505050811b0191015561098b565b015160001960f88460031b161c19169055878080610a73565b8282015188556001909701966020928301920161178b565b600b83016000526020600020601f830160051c81016020841061182d575b601f830160051c8201811061182157505061162f565b6000815560010161180b565b508061180b565b0151905085806115ea565b600a850160005260206000209060005b601f1984168110611896575060019394959683601f1981161061187d575b505050811b01600a840155611602565b015160001960f88460031b161c1916905585808061186d565b9091602060018192858b01518155019301910161184f565b600a85016000526020600020601f830160051c8101602084106118ee575b601f830160051c820181106118e25750506115cf565b600081556001016118cc565b50806118cc565b01519050858061158a565b6009840160005260206000209060005b601f1984168110611957575060019394959683601f1981161061193e575b505050811b0160098301556115a2565b015160001960f88460031b161c1916905585808061192e565b9091602060018192858b015181550193019101611910565b600984016000526020600020601f830160051c8101602084106119af575b601f830160051c820181106119a357505061156f565b6000815560010161198d565b508061198d565b015190508580611500565b6006830160005260206000209060005b601f1984168110611a18575060019394959683601f198116106119ff575b505050811b016006820155611518565b015160001960f88460031b161c191690558580806119ef565b9091602060018192858b0151815501930191016119d1565b600683016000526020600020601f830160051c810160208410611a70575b601f830160051c82018110611a645750506114e5565b60008155600101611a4e565b5080611a4e565b0151905085806114a1565b6005850160005260206000209060005b601f1984168110611ad9575060019394959683601f19811610611ac0575b505050811b0160058401556114b9565b015160001960f88460031b161c19169055858080611ab0565b9091602060018192858b015181550193019101611a92565b600585016000526020600020601f830160051c810160208410611b31575b601f830160051c82018110611b25575050611486565b60008155600101611b0f565b5080611b0f565b015190508580611442565b6004840160005260206000209060005b601f1984168110611b9a575060019394959683601f19811610611b81575b505050811b01600483015561145a565b015160001960f88460031b161c19169055858080611b71565b9091602060018192858b015181550193019101611b53565b600484016000526020600020601f830160051c810160208410611bf2575b601f830160051c82018110611be6575050611427565b60008155600101611bd0565b5080611bd0565b0151905085806113e3565b6003830160005260206000209060005b601f1984168110611c5b575060019394959683601f19811610611c42575b505050811b0160038201556113fb565b015160001960f88460031b161c19169055858080611c32565b9091602060018192858b015181550193019101611c14565b600383016000526020600020601f830160051c810160208410611cb3575b601f830160051c82018110611ca75750506113c8565b60008155600101611c91565b5080611c91565b01519050858061135b565b6001850160005260206000209060005b601f1984168110611d1c575060019394959683601f19811610611d03575b505050811b016001840155611373565b015160001960f88460031b161c19169055858080611cf3565b9091602060018192858b015181550193019101611cd5565b600185016000526020600020601f830160051c810160208410611d74575b601f830160051c82018110611d68575050611340565b60008155600101611d52565b5080611d52565b60405162461bcd60e51b815260206004820152602560248201527f596f75206861766520616c7265616479207265706f7374656420746869732074604482015264776565742160d81b6064820152608490fd5b634e487b7160e01b600052603260045260246000fd5b60405162461bcd60e51b815260206004820152601060248201526f125b9d985b1a59081d1dd9595d08125160821b6044820152606490fd5b346100d7576020806003193601126100d7576001600160a01b03611e3e611f9e565b166000526002815260406000208054611e5681612e4f565b91611e646040519384612060565b8183526000908152838120938084015b838310611e8957604051806102a28782612223565b600c82600192611e9889612d83565b815201960192019194611e74565b346100d75760003660031901126100d75760018054611ec481612e4f565b90611ed26040519283612060565b808252600083815260208082208185015b848410611ef857604051806102a28882612223565b600c838892611f0685612d83565b815201920193019290611ee3565b346100d75760403660031901126100d757611f2d611f9e565b6001600160a01b0390811660009081526002602052604090208054602435908110156100d757611f5c91611fd3565b506102a2815491611f6f60018201612081565b936002820154169061040f60038201612081565b346100d75760003660031901126100d7576020906005548152f35b600435906001600160a01b03821682036100d757565b600154811015611dce576001600052600c602060002091020190600090565b8054821015611dce57600052600c602060002091020190600090565b90600182811c9216801561201f575b602083101461200957565b634e487b7160e01b600052602260045260246000fd5b91607f1691611ffe565b61018081019081106001600160401b03821117610af957604052565b602081019081106001600160401b03821117610af957604052565b90601f801991011681019081106001600160401b03821117610af957604052565b906040519182600082549261209584611fef565b90818452600194858116908160001461210457506001146120c1575b50506120bf92500383612060565b565b9093915060005260209081600020936000915b8183106120ec5750506120bf935082010138806120b1565b855488840185015294850194879450918301916120d4565b9150506120bf94506020925060ff191682840152151560051b82010138806120b1565b919082519283825260005b848110612153575050826000602080949584010152601f8019910116010190565b602081830181015184830182015201612132565b9a97956121ca8c6122209e9c976121bc6121e6976122119e9961219f6122029e996121d8998752610180806020890152870190612127565b6001600160a01b0390921660408601528482036060860152612127565b916080818403910152612127565b8c810360a08e015290612127565b908a820360c08c0152612127565b9260e08901521515610100880152868203610120880152612127565b90848203610140860152612127565b91610160818403910152612127565b90565b602080820190808352835180925260409283810182858560051b8401019601946000925b858410612258575050505050505090565b909192939495968580612350600193603f198682030188528b518051825261233c6123286122fd6122ea6122d76122c48d6122a18b8901518c61018080918d01528b0190612127565b908d8060a01b03818a015116908a0152606080890151908a8303908b0152612127565b60808088015190898303908a0152612127565b60a0808701519088830390890152612127565b60c0808601519087830390880152612127565b60e0808501519086015261010080850151151590860152610120808501519086830390870152612127565b610140808401519085830390860152612127565b916101608092015191818403910152612127565b990194019401929594939190612247565b60609060031901126100d7576001600160a01b039060043582811681036100d7579160243590811681036100d7579060443590565b9181601f840112156100d7578235916001600160401b0383116100d757602083818601950101116100d757565b9291926001600160401b038211610af957604051916123ec601f8201601f191660200184612060565b8294818452818301116100d7578281602093846000960137010152565b9080601f830112156100d757816020612220933591016123c3565b8054600160401b811015610af957612443906001928382018155611fd3565b6110bf578251815560208084015180516001600160401b03939085820190858111610af957806124738354611fef565b94601f95868111612d22575b508690868311600114612cbf57600092612cb4575b5050600019600383901b1c191690871b1790555b60408601516002820180546001600160a01b0319166001600160a01b039290921691909117905560608601518051600394918584019190878211610af95781906124f28454611fef565b878111612c63575b508490878311600114612c0157600092612bf6575b505060001982881b1c191690881b1790555b6004918281016080890151805190888211612be15781906125428454611fef565b888111612b90575b508590888311600114612b2e57600092612b23575b505060001982891b1c191690891b1790555b60059081810160a08a01518051908982116128bf5781906125928454611fef565b898111612ad4575b508690898311600114612a6957600092612a5e575b5050600019828a1b1c1916908a1b1790555b6006810160c08a01518051908982116128bf5781906125e08454611fef565b898111612a0f575b5086908983116001146129a457600092612999575b5050600019828a1b1c1916908a1b1790555b60e089015160078201556126396101008a01511515600883019060ff801983541691151516179055565b600981016101208a01518051908982116128bf5781906126598454611fef565b89811161294a575b5086908983116001146128df576000926128d4575b5050600019828a1b1c1916908a1b1790555b600a81016101408a01518051908982116128bf576126a68354611fef565b88811161287b575b508590888311600114612804579180600b949261016096946000926127f9575b5050600019828c1b1c1916908c1b1790555b019801519283519687116127e457506126f98854611fef565b908482116127a0575b50508092851160011461273a575093839491849260009561272f575b50501b92600019911b1c1916179055565b01519350388061271e565b92919084601f1981168860005285600020956000905b89838310612786575050501061276c575b50505050811b019055565b01519060f884600019921b161c1916905538808080612761565b858701518955909701969485019488935090810190612750565b88600052826000209085808901821c830193858a106127db575b01901c019087905b8281106127cf5750612702565b600081550187906127c2565b935082936127ba565b604190634e487b7160e01b6000525260246000fd5b0151905038806126ce565b8b9291601f1983169185600052886000209260005b8a82821061285c575050916101609795939185600b98969410612844575b505050811b0190556126e0565b0151600019838e1b60f8161c19169055388080612837565b91929395968291958786015181550195019301908e9594939291612819565b836000528660002089808501881c8201928986106128b6575b01871c01908c905b8281106128aa5750506126ae565b60008155018c9061289c565b92508192612894565b604187634e487b7160e01b6000525260246000fd5b015190503880612676565b908c9350601f1983169185600052886000209260005b8a82821061292b5750508411612913575b505050811b019055612688565b0151600019838c1b60f8161c19169055388080612906565b91929395968291958786015181550195019301908e95949392916128f5565b909150836000528660002089808501881c820192898610612990575b918e918695949301891c01915b828110612981575050612661565b600081558594508e9101612973565b92508192612966565b0151905038806125fd565b908c9350601f1983169185600052886000209260005b8a8282106129f057505084116129d8575b505050811b01905561260f565b0151600019838c1b60f8161c191690553880806129cb565b91929395968291958786015181550195019301908e95949392916129ba565b909150836000528660002089808501881c820192898610612a55575b918e918695949301891c01915b828110612a465750506125e8565b600081558594508e9101612a38565b92508192612a2b565b0151905038806125af565b908c9350601f1983169185600052886000209260005b8a828210612ab55750508411612a9d575b505050811b0190556125c1565b0151600019838c1b60f8161c19169055388080612a90565b91929395968291958786015181550195019301908e9594939291612a7f565b909150836000528660002089808501881c820192898610612b1a575b918e918695949301891c01915b828110612b0b57505061259a565b600081558594508e9101612afd565b92508192612af0565b01519050388061255f565b908b9350601f1983169185600052876000209260005b89828210612b7a5750508411612b62575b505050811b019055612571565b0151600019838b1b60f8161c19169055388080612b55565b8385015186558f97909501949384019301612b44565b90915083600052856000208880850160051c820192888610612bd8575b918d91869594930160051c01915b828110612bc957505061254a565b600081558594508d9101612bbb565b92508192612bad565b604186634e487b7160e01b6000525260246000fd5b01519050388061250f565b908a9350601f1983169185600052866000209260005b88828210612c4d5750508411612c35575b505050811b019055612521565b0151600019838a1b60f8161c19169055388080612c28565b8385015186558e97909501949384019301612c17565b90915083600052846000208780850160051c820192878610612cab575b918c91869594930160051c01915b828110612c9c5750506124fa565b600081558594508c9101612c8e565b92508192612c80565b015190503880612494565b90899350601f1983169185600052886000209260005b8a828210612d0c5750508411612cf3575b505050811b0190556124a8565b015160001960f88460031b161c19169055388080612ce6565b8385015186558d97909501949384019301612cd5565b90915060008481528781208780860160051c8201938a8710612d6b575b918c9187969594930160051c01925b838110612d5d5750505061247f565b8281558695508c9101612d4e565b93508193612d3f565b600019811461175a5760010190565b90604051612d9081612029565b610160612e4a600b839580548552612daa60018201612081565b602086015260028101546001600160a01b03166040860152612dce60038201612081565b6060860152612ddf60048201612081565b6080860152612df060058201612081565b60a0860152612e0160068201612081565b60c0860152600781015460e086015260ff6008820154161515610100860152612e2c60098201612081565b610120860152612e3e600a8201612081565b61014086015201612081565b910152565b6001600160401b038111610af95760051b60200190565b8051821015611dce5760209160051b01019056fe86a2174f6d99d2793dada3dfed99b1375953ca3593950e7b4615f48a1b4872b0a26469706673582212202c1d0f16fd988280d2c588409fcfce60e792d52ad95f885bb33fe8f9ff10bb7064736f6c63430008110033",
  "linkReferences": {},
  "deployedLinkReferences": {}
}