{
  "_format": "hh-sol-artifact-1",
  "contractName": "PostInteractions",
  "sourceName": "contracts/PostInteractions.sol",
  "abi": [
    {
      "inputs": [
        {
          "internalType": "address",
          "name": "_postTweetAddress",
          "type": "address"
        }
      ],
      "stateMutability": "nonpayable",
      "type": "constructor"
    },
    {
      "anonymous": false,
      "inputs": [
        {
          "indexed": true,
          "internalType": "uint256",
          "name": "commentId",
          "type": "uint256"
        },
        {
          "indexed": true,
          "internalType": "address",
          "name": "commenter",
          "type": "address"
        },
        {
          "indexed": true,
          "internalType": "address",
          "name": "author",
          "type": "address"
        },
        {
          "indexed": false,
          "internalType": "uint256",
          "name": "tweetId",
          "type": "uint256"
        },
        {
          "indexed": false,
          "internalType": "string",
          "name": "name",
          "type": "string"
        },
        {
          "indexed": false,
          "internalType": "string",
          "name": "commenterID",
          "type": "string"
        },
        {
          "indexed": false,
          "internalType": "string",
          "name": "avatar",
          "type": "string"
        },
        {
          "indexed": false,
          "internalType": "string",
          "name": "content",
          "type": "string"
        },
        {
          "indexed": false,
          "internalType": "string",
          "name": "mediaCID",
          "type": "string"
        },
        {
          "indexed": false,
          "internalType": "uint256",
          "name": "timestamp",
          "type": "uint256"
        }
      ],
      "name": "CommentAdded",
      "type": "event"
    },
    {
      "anonymous": false,
      "inputs": [
        {
          "indexed": true,
          "internalType": "address",
          "name": "user",
          "type": "address"
        },
        {
          "indexed": true,
          "internalType": "address",
          "name": "author",
          "type": "address"
        },
        {
          "indexed": true,
          "internalType": "uint256",
          "name": "tweetId",
          "type": "uint256"
        }
      ],
      "name": "TweetLiked",
      "type": "event"
    },
    {
      "anonymous": false,
      "inputs": [
        {
          "indexed": true,
          "internalType": "address",
          "name": "user",
          "type": "address"
        },
        {
          "indexed": true,
          "internalType": "address",
          "name": "author",
          "type": "address"
        },
        {
          "indexed": true,
          "internalType": "uint256",
          "name": "tweetId",
          "type": "uint256"
        }
      ],
      "name": "TweetUnliked",
      "type": "event"
    },
    {
      "inputs": [
        {
          "internalType": "address",
          "name": "author",
          "type": "address"
        },
        {
          "internalType": "uint256",
          "name": "tweetId",
          "type": "uint256"
        },
        {
          "internalType": "string",
          "name": "_name",
          "type": "string"
        },
        {
          "internalType": "string",
          "name": "_commenterID",
          "type": "string"
        },
        {
          "internalType": "string",
          "name": "_avatar",
          "type": "string"
        },
        {
          "internalType": "string",
          "name": "_content",
          "type": "string"
        },
        {
          "internalType": "string",
          "name": "_mediaCID",
          "type": "string"
        }
      ],
      "name": "addComment",
      "outputs": [],
      "stateMutability": "nonpayable",
      "type": "function"
    },
    {
      "inputs": [],
      "name": "commentCounter",
      "outputs": [
        {
          "internalType": "uint256",
          "name": "",
          "type": "uint256"
        }
      ],
      "stateMutability": "view",
      "type": "function"
    },
    {
      "inputs": [
        {
          "internalType": "address",
          "name": "",
          "type": "address"
        },
        {
          "internalType": "uint256",
          "name": "",
          "type": "uint256"
        },
        {
          "internalType": "uint256",
          "name": "",
          "type": "uint256"
        }
      ],
      "name": "comments",
      "outputs": [
        {
          "internalType": "uint256",
          "name": "id",
          "type": "uint256"
        },
        {
          "internalType": "string",
          "name": "name",
          "type": "string"
        },
        {
          "internalType": "address",
          "name": "author",
          "type": "address"
        },
        {
          "internalType": "string",
          "name": "authorID",
          "type": "string"
        },
        {
          "internalType": "string",
          "name": "avatar",
          "type": "string"
        },
        {
          "internalType": "string",
          "name": "content",
          "type": "string"
        },
        {
          "internalType": "string",
          "name": "mediaCID",
          "type": "string"
        },
        {
          "internalType": "uint256",
          "name": "timestamp",
          "type": "uint256"
        }
      ],
      "stateMutability": "view",
      "type": "function"
    },
    {
      "inputs": [
        {
          "internalType": "address",
          "name": "author",
          "type": "address"
        },
        {
          "internalType": "uint256",
          "name": "tweetId",
          "type": "uint256"
        }
      ],
      "name": "getComments",
      "outputs": [
        {
          "components": [
            {
              "internalType": "uint256",
              "name": "id",
              "type": "uint256"
            },
            {
              "internalType": "string",
              "name": "name",
              "type": "string"
            },
            {
              "internalType": "address",
              "name": "author",
              "type": "address"
            },
            {
              "internalType": "string",
              "name": "authorID",
              "type": "string"
            },
            {
              "internalType": "string",
              "name": "avatar",
              "type": "string"
            },
            {
              "internalType": "string",
              "name": "content",
              "type": "string"
            },
            {
              "internalType": "string",
              "name": "mediaCID",
              "type": "string"
            },
            {
              "internalType": "uint256",
              "name": "timestamp",
              "type": "uint256"
            }
          ],
          "internalType": "struct PostInteractions.Comment[]",
          "name": "",
          "type": "tuple[]"
        }
      ],
      "stateMutability": "view",
      "type": "function"
    },
    {
      "inputs": [
        {
          "internalType": "address",
          "name": "author",
          "type": "address"
        },
        {
          "internalType": "uint256",
          "name": "tweetId",
          "type": "uint256"
        }
      ],
      "name": "getTotalComments",
      "outputs": [
        {
          "internalType": "uint256",
          "name": "",
          "type": "uint256"
        }
      ],
      "stateMutability": "view",
      "type": "function"
    },
    {
      "inputs": [
        {
          "internalType": "address",
          "name": "author",
          "type": "address"
        },
        {
          "internalType": "uint256",
          "name": "tweetId",
          "type": "uint256"
        }
      ],
      "name": "getTotalLikes",
      "outputs": [
        {
          "internalType": "uint256",
          "name": "",
          "type": "uint256"
        }
      ],
      "stateMutability": "view",
      "type": "function"
    },
    {
      "inputs": [
        {
          "internalType": "address",
          "name": "author",
          "type": "address"
        },
        {
          "internalType": "uint256",
          "name": "tweetId",
          "type": "uint256"
        }
      ],
      "name": "hasUserCommented",
      "outputs": [
        {
          "internalType": "bool",
          "name": "",
          "type": "bool"
        }
      ],
      "stateMutability": "view",
      "type": "function"
    },
    {
      "inputs": [
        {
          "internalType": "address",
          "name": "author",
          "type": "address"
        },
        {
          "internalType": "uint256",
          "name": "tweetId",
          "type": "uint256"
        }
      ],
      "name": "isLiked",
      "outputs": [
        {
          "internalType": "bool",
          "name": "",
          "type": "bool"
        }
      ],
      "stateMutability": "view",
      "type": "function"
    },
    {
      "inputs": [
        {
          "internalType": "address",
          "name": "",
          "type": "address"
        },
        {
          "internalType": "uint256",
          "name": "",
          "type": "uint256"
        }
      ],
      "name": "likeCount",
      "outputs": [
        {
          "internalType": "uint256",
          "name": "",
          "type": "uint256"
        }
      ],
      "stateMutability": "view",
      "type": "function"
    },
    {
      "inputs": [
        {
          "internalType": "address",
          "name": "author",
          "type": "address"
        },
        {
          "internalType": "uint256",
          "name": "tweetId",
          "type": "uint256"
        }
      ],
      "name": "likeTweet",
      "outputs": [],
      "stateMutability": "nonpayable",
      "type": "function"
    },
    {
      "inputs": [
        {
          "internalType": "address",
          "name": "",
          "type": "address"
        },
        {
          "internalType": "address",
          "name": "",
          "type": "address"
        },
        {
          "internalType": "uint256",
          "name": "",
          "type": "uint256"
        }
      ],
      "name": "likes",
      "outputs": [
        {
          "internalType": "bool",
          "name": "",
          "type": "bool"
        }
      ],
      "stateMutability": "view",
      "type": "function"
    },
    {
      "inputs": [],
      "name": "postTweet",
      "outputs": [
        {
          "internalType": "contract PostTweet",
          "name": "",
          "type": "address"
        }
      ],
      "stateMutability": "view",
      "type": "function"
    },
    {
      "inputs": [
        {
          "internalType": "address",
          "name": "author",
          "type": "address"
        },
        {
          "internalType": "uint256",
          "name": "tweetId",
          "type": "uint256"
        }
      ],
      "name": "unlikeTweet",
      "outputs": [],
      "stateMutability": "nonpayable",
      "type": "function"
    }
  ],
  "bytecode": "0x60803461007457601f6114fe38819003918201601f19168301916001600160401b038311848410176100795780849260209460405283398101031261007457516001600160a01b0381169081900361007457600080546001600160a01b03191691909117905560405161146e90816100908239f35b600080fd5b634e487b7160e01b600052604160045260246000fdfe608080604052600436101561001357600080fd5b60003560e01c908163066e146e1461107c575080630ae9a33d146107e9578063346d971d146107905780633d9b569f1461067c578063493f41d914610653578063633782161461051e57806390b9b681146104ed578063a749e29c14610485578063b8c0a1ef14610467578063d5f658831461041f578063ddbe7afc146103d7578063f3e6cb38146102c25763fdbe1d6d146100ae57600080fd5b346102bd5760403660031901126102bd576001600160a01b03806100d06110bf565b166000526003906020828152604060002060243560005281526040600020908154906001600160401b0382116102a757929390604051906005926101188683861b018461118a565b81835260009485528585208684019591865b848410610212575050505050604051938085019181865251809252604082818701941b86010193926000965b8388106101635786860387f35b90919293948380600192603f198a82030186528851908151815260e0806101fb6101e86101d56101c26101a389890151610100808c8b0152890190611251565b8c60408a01511660408901526060808a015190898303908a0152611251565b6080808901519088830390890152611251565b60a0808801519087830390880152611251565b60c0808701519086830390870152611251565b930151910152970193019701969093929193610156565b6008896001928c6102748b9e9d9a9b6040519261022e8461116e565b8954845261023d888b016111ab565b8685015260028a0154166040840152610257888a016111ab565b606084015261026860048a016111ab565b608084015288016111ab565b60a0820152610285600688016111ab565b60c0820152600787015460e0820152815201930193019291989594979861012a565b634e487b7160e01b600052604160045260246000fd5b600080fd5b346102bd5760603660031901126102bd576102db6110bf565b60443560018060a01b038092166000526003602052604060002060243560005260205260406000209081548110156102bd5761031691611102565b508054906103cd610329600183016111ab565b93600283015416916103bf610340600383016111ab565b936103b1610350600485016111ab565b6103a361035f600587016111ab565b93600761036e600689016111ab565b970154986103906040519c8d9c8d5260208d61010091829101528d0190611251565b9160408c01528a820360608c0152611251565b9088820360808a0152611251565b9086820360a0880152611251565b9084820360c0860152611251565b9060e08301520390f35b346102bd5760403660031901126102bd576001600160a01b036103f86110bf565b16600052600260205260406000206024356000526020526020604060002054604051908152f35b346102bd5760403660031901126102bd576001600160a01b036104406110bf565b16600052600360205260406000206024356000526020526020604060002054604051908152f35b346102bd5760003660031901126102bd576020600454604051908152f35b346102bd5760603660031901126102bd5761049e6110bf565b6001600160a01b0360243581811692908390036102bd571660005260016020526040600020906000526020526040600020604435600052602052602060ff604060002054166040519015158152f35b346102bd5760403660031901126102bd57602061051461050b6110bf565b60243590611307565b6040519015158152f35b346102bd5760403660031901126102bd576105376110bf565b602435903360005260206001815260406000209160018060a01b031691826000528152604060002083600052815260ff60406000205416610605573360005260018152604060002082600052815260406000208360005281526040600020600160ff19825416179055816000526002815260406000209083600052526040600020805490600182018092116105ef5755337f7c4b06baee4c2050d672eef0084a1baaf8d938d7f9eddc476d9a89847171b537600080a4005b634e487b7160e01b600052601160045260246000fd5b6084906040519062461bcd60e51b82526004820152602160248201527f596f75206861766520616c7265616479206c696b6564207468697320747765656044820152601d60fa1b6064820152fd5b346102bd5760003660031901126102bd576000546040516001600160a01b039091168152602090f35b346102bd5760403660031901126102bd576106956110bf565b602435903360005260206001815260406000209160018060a01b031691826000528152604060002083600052815260ff604060002054161561074c57336000526001815260406000208260005281526040600020836000528152604060002060ff19815416905581600052600281526040600020908360005252604060002080549060001982019182116105ef5755337fb58ed4b89ca4d829a75de89912b2e43d4953c28753d53e5303767d2959380761600080a4005b6064906040519062461bcd60e51b82526004820152601e60248201527f596f752068617665206e6f74206c696b656420746869732074776565742e00006044820152fd5b346102bd5760403660031901126102bd576107a96110bf565b33600052600160205260406000209060018060a01b03166000526020526040600020602435600052602052602060ff604060002054166040519015158152f35b346102bd5760e03660031901126102bd576108026110bf565b6044356001600160401b0381116102bd576108219036906004016110d5565b90916064356001600160401b0381116102bd576108429036906004016110d5565b93906084356001600160401b0381116102bd576108639036906004016110d5565b9060a4356001600160401b0381116102bd576108839036906004016110d5565b909160c4356001600160401b0381116102bd576108a49036906004016110d5565b949095831561103d57600454604051906108bd8261116e565b81526108ca368c8b611291565b60208201523360408201526108e0368d84611291565b60608201526108f0368486611291565b6080820152610900368688611291565b60a082015261091036888a611291565b60c08201524260e08201526001600160a01b038a166000908152600360209081526040808320602435845290915290208054600160401b8110156102a75761095d91600182018155611102565b919091611027578051825560208101518051906001600160401b0382116102a757819061098d6001860154611134565b601f8111610fd4575b50602090601f8311600114610f6257600092610f57575b50508160011b916000199060031b1c19161760018301555b60408101516002830180546001600160a01b0319166001600160a01b039290921691909117905560608101518051906001600160401b0382116102a7578190610a116003860154611134565b601f8111610f04575b50602090601f8311600114610e9257600092610e87575b50508160011b916000199060031b1c19161760038301555b60808101518051906001600160401b0382116102a7578190610a6e6004860154611134565b601f8111610e34575b50602090601f8311600114610dc257600092610db7575b50508160011b916000199060031b1c19161760048301555b60a08101518051906001600160401b0382116102a7578190610acb6005860154611134565b601f8111610d64575b50602090601f8311600114610cf257600092610ce7575b50508160011b916000199060031b1c19161760058301555b60c08101518051906001600160401b0382116102a757610b266006850154611134565b601f8111610ca0575b50602090601f8311600114610c2d5760e093929160009183610c22575b50508160011b916000199060031b1c19161760068401555b015190600701556004549a8b986040519b6024358d5260208d0160e0905260e08d0190610b90926112d7565b908b820360408d0152610ba2926112d7565b9089820360608b0152610bb4926112d7565b908782036080890152610bc6926112d7565b9085820360a0870152610bd8926112d7565b4260c08501526001600160a01b039092169233927fcde38bf70668e6f3eb2c791d01115ce7f81a42ebbbe75cc1414bbbc7907486a9919081900390a4610c1d906112f8565b600455005b015190503880610b4c565b906006850160005260206000209160005b601f1985168110610c88575091839160019360e09695601f19811610610c6f575b505050811b016006840155610b64565b015160001960f88460031b161c19169055388080610c5f565b91926020600181928685015181550194019201610c3e565b600685016000526020600020601f840160051c810160208510610ce0575b601f830160051c82018110610cd4575050610b2f565b60008155600101610cbe565b5080610cbe565b015190508f80610aeb565b9250600585016000526020600020906000935b601f1984168510610d49576001945083601f19811610610d30575b505050811b016005830155610b03565b015160001960f88460031b161c191690558f8080610d20565b81810151835560209485019460019093019290910190610d05565b909150600585016000526020600020601f840160051c810160208510610db0575b90849392915b601f830160051c82018110610da1575050610ad4565b60008155859450600101610d8b565b5080610d85565b015190508f80610a8e565b9250600485016000526020600020906000935b601f1984168510610e19576001945083601f19811610610e00575b505050811b016004830155610aa6565b015160001960f88460031b161c191690558f8080610df0565b81810151835560209485019460019093019290910190610dd5565b909150600485016000526020600020601f840160051c810160208510610e80575b90849392915b601f830160051c82018110610e71575050610a77565b60008155859450600101610e5b565b5080610e55565b015190508f80610a31565b9250600385016000526020600020906000935b601f1984168510610ee9576001945083601f19811610610ed0575b505050811b016003830155610a49565b015160001960f88460031b161c191690558f8080610ec0565b81810151835560209485019460019093019290910190610ea5565b909150600385016000526020600020601f840160051c810160208510610f50575b90849392915b601f830160051c82018110610f41575050610a1a565b60008155859450600101610f2b565b5080610f25565b015190508f806109ad565b9250600185016000526020600020906000935b601f1984168510610fb9576001945083601f19811610610fa0575b505050811b0160018301556109c5565b015160001960f88460031b161c191690558f8080610f90565b81810151835560209485019460019093019290910190610f75565b909150600185016000526020600020601f840160051c810160208510611020575b90849392915b601f830160051c82018110611011575050610996565b60008155859450600101610ffb565b5080610ff5565b634e487b7160e01b600052600060045260246000fd5b60405162461bcd60e51b8152602060048201526017602482015276436f6d6d656e742063616e6e6f7420626520656d70747960481b6044820152606490fd5b346102bd5760403660031901126102bd576020906001600160a01b036110a06110bf565b1660005260028252604060002060243560005282526040600020548152f35b600435906001600160a01b03821682036102bd57565b9181601f840112156102bd578235916001600160401b0383116102bd57602083818601950101116102bd57565b805482101561111e5760005260206000209060031b0190600090565b634e487b7160e01b600052603260045260246000fd5b90600182811c92168015611164575b602083101461114e57565b634e487b7160e01b600052602260045260246000fd5b91607f1691611143565b61010081019081106001600160401b038211176102a757604052565b90601f801991011681019081106001600160401b038211176102a757604052565b90604051918260008254926111bf84611134565b90818452600194858116908160001461122e57506001146111eb575b50506111e99250038361118a565b565b9093915060005260209081600020936000915b8183106112165750506111e9935082010138806111db565b855488840185015294850194879450918301916111fe565b9150506111e994506020925060ff191682840152151560051b82010138806111db565b919082519283825260005b84811061127d575050826000602080949584010152601f8019910116010190565b60208183018101518483018201520161125c565b9291926001600160401b0382116102a757604051916112ba601f8201601f19166020018461118a565b8294818452818301116102bd578281602093846000960137010152565b908060209392818452848401376000828201840152601f01601f1916010190565b60001981146105ef5760010190565b9060018060a01b0380600093168352600391602083815260409182862090865281528185209384546001600160401b038111611424578351600596909261135283891b86018561118a565b82845290885283882088918789878088015b8787106113b4575050505050505050855b81518110156113ab5733858585848a1b860101510151161461139f5761139a906112f8565b611375565b50505050505050600190565b50505050505090565b6001936113f26008948d8051936113ca8561116e565b8a5485526113d9898c016111ab565b8786015260028b01541690840152610257888a016111ab565b60a0820152611403600688016111ab565b60c0820152600787015460e082015281520193019301929189878a92611364565b634e487b7160e01b87526041600452602487fdfea26469706673582212209fcb76b2b165c36c402e1f688c9094a03ad3517388e2b0138452f6d6cb002df764736f6c63430008110033",
  "linkReferences": {},
  "deployedLinkReferences": {}
}