{
  "_format": "hh-sol-artifact-1",
  "contractName": "PostTweet",
  "sourceName": "contracts/PostTweet.sol",
  "abi": [
    {
      "anonymous": false,
      "inputs": [
        {
          "indexed": true,
          "internalType": "uint256",
          "name": "tweetId",
          "type": "uint256"
        },
        {
          "indexed": true,
          "internalType": "address",
          "name": "author",
          "type": "address"
        },
        {
          "indexed": false,
          "internalType": "string",
          "name": "authorID",
          "type": "string"
        },
        {
          "indexed": false,
          "internalType": "string",
          "name": "name",
          "type": "string"
        },
        {
          "indexed": false,
          "internalType": "string",
          "name": "avatar",
          "type": "string"
        },
        {
          "indexed": false,
          "internalType": "string",
          "name": "content",
          "type": "string"
        },
        {
          "indexed": false,
          "internalType": "string",
          "name": "mediaCID",
          "type": "string"
        },
        {
          "indexed": false,
          "internalType": "uint256",
          "name": "timestamp",
          "type": "uint256"
        }
      ],
      "name": "TweetPosted",
      "type": "event"
    },
    {
      "inputs": [
        {
          "internalType": "uint256",
          "name": "",
          "type": "uint256"
        }
      ],
      "name": "allTweets",
      "outputs": [
        {
          "internalType": "uint256",
          "name": "id",
          "type": "uint256"
        },
        {
          "internalType": "string",
          "name": "name",
          "type": "string"
        },
        {
          "internalType": "address",
          "name": "author",
          "type": "address"
        },
        {
          "internalType": "string",
          "name": "authorID",
          "type": "string"
        },
        {
          "internalType": "string",
          "name": "avatar",
          "type": "string"
        },
        {
          "internalType": "string",
          "name": "content",
          "type": "string"
        },
        {
          "internalType": "string",
          "name": "mediaCID",
          "type": "string"
        },
        {
          "internalType": "uint256",
          "name": "timestamp",
          "type": "uint256"
        }
      ],
      "stateMutability": "view",
      "type": "function"
    },
    {
      "inputs": [],
      "name": "getAllTweets",
      "outputs": [
        {
          "components": [
            {
              "internalType": "uint256",
              "name": "id",
              "type": "uint256"
            },
            {
              "internalType": "string",
              "name": "name",
              "type": "string"
            },
            {
              "internalType": "address",
              "name": "author",
              "type": "address"
            },
            {
              "internalType": "string",
              "name": "authorID",
              "type": "string"
            },
            {
              "internalType": "string",
              "name": "avatar",
              "type": "string"
            },
            {
              "internalType": "string",
              "name": "content",
              "type": "string"
            },
            {
              "internalType": "string",
              "name": "mediaCID",
              "type": "string"
            },
            {
              "internalType": "uint256",
              "name": "timestamp",
              "type": "uint256"
            }
          ],
          "internalType": "struct PostTweet.Tweet[]",
          "name": "",
          "type": "tuple[]"
        }
      ],
      "stateMutability": "view",
      "type": "function"
    },
    {
      "inputs": [
        {
          "internalType": "address",
          "name": "_user",
          "type": "address"
        }
      ],
      "name": "getTweetsByUser",
      "outputs": [
        {
          "components": [
            {
              "internalType": "uint256",
              "name": "id",
              "type": "uint256"
            },
            {
              "internalType": "string",
              "name": "name",
              "type": "string"
            },
            {
              "internalType": "address",
              "name": "author",
              "type": "address"
            },
            {
              "internalType": "string",
              "name": "authorID",
              "type": "string"
            },
            {
              "internalType": "string",
              "name": "avatar",
              "type": "string"
            },
            {
              "internalType": "string",
              "name": "content",
              "type": "string"
            },
            {
              "internalType": "string",
              "name": "mediaCID",
              "type": "string"
            },
            {
              "internalType": "uint256",
              "name": "timestamp",
              "type": "uint256"
            }
          ],
          "internalType": "struct PostTweet.Tweet[]",
          "name": "",
          "type": "tuple[]"
        }
      ],
      "stateMutability": "view",
      "type": "function"
    },
    {
      "inputs": [
        {
          "internalType": "string",
          "name": "_name",
          "type": "string"
        },
        {
          "internalType": "string",
          "name": "_authorID",
          "type": "string"
        },
        {
          "internalType": "string",
          "name": "_avatar",
          "type": "string"
        },
        {
          "internalType": "string",
          "name": "_content",
          "type": "string"
        },
        {
          "internalType": "string",
          "name": "_mediaCID",
          "type": "string"
        }
      ],
      "name": "postTweet",
      "outputs": [],
      "stateMutability": "nonpayable",
      "type": "function"
    },
    {
      "inputs": [],
      "name": "tweetCounter",
      "outputs": [
        {
          "internalType": "uint256",
          "name": "",
          "type": "uint256"
        }
      ],
      "stateMutability": "view",
      "type": "function"
    },
    {
      "inputs": [
        {
          "internalType": "address",
          "name": "",
          "type": "address"
        },
        {
          "internalType": "uint256",
          "name": "",
          "type": "uint256"
        }
      ],
      "name": "userTweets",
      "outputs": [
        {
          "internalType": "uint256",
          "name": "id",
          "type": "uint256"
        },
        {
          "internalType": "string",
          "name": "name",
          "type": "string"
        },
        {
          "internalType": "address",
          "name": "author",
          "type": "address"
        },
        {
          "internalType": "string",
          "name": "authorID",
          "type": "string"
        },
        {
          "internalType": "string",
          "name": "avatar",
          "type": "string"
        },
        {
          "internalType": "string",
          "name": "content",
          "type": "string"
        },
        {
          "internalType": "string",
          "name": "mediaCID",
          "type": "string"
        },
        {
          "internalType": "uint256",
          "name": "timestamp",
          "type": "uint256"
        }
      ],
      "stateMutability": "view",
      "type": "function"
    }
  ],
  "bytecode": "0x608060405234801561001057600080fd5b50611df2806100206000396000f3fe608060405234801561001057600080fd5b50600436106100625760003560e01c806322b13ac8146100675780632e06f3471461008557806353256135146100bc578063707c54e5146100da578063c66137661461010a578063e28350b714610126575b600080fd5b61006f61015d565b60405161007c9190611290565b60405180910390f35b61009f600480360381019061009a9190611349565b610163565b6040516100b3989796959493929190611428565b60405180910390f35b6100c4610490565b6040516100d191906116bf565b60405180910390f35b6100f460048036038101906100ef91906116e1565b610834565b60405161010191906116bf565b60405180910390f35b610124600480360381019061011f9190611843565b610c17565b005b610140600480360381019061013b919061194a565b610f57565b604051610154989796959493929190611428565b60405180910390f35b60025481565b6001602052816000526040600020818154811061017f57600080fd5b9060005260206000209060080201600091509150508060000154908060010180546101a9906119a6565b80601f01602080910402602001604051908101604052809291908181526020018280546101d5906119a6565b80156102225780601f106101f757610100808354040283529160200191610222565b820191906000526020600020905b81548152906001019060200180831161020557829003601f168201915b5050505050908060020160009054906101000a900473ffffffffffffffffffffffffffffffffffffffff169080600301805461025d906119a6565b80601f0160208091040260200160405190810160405280929190818152602001828054610289906119a6565b80156102d65780601f106102ab576101008083540402835291602001916102d6565b820191906000526020600020905b8154815290600101906020018083116102b957829003601f168201915b5050505050908060040180546102eb906119a6565b80601f0160208091040260200160405190810160405280929190818152602001828054610317906119a6565b80156103645780601f1061033957610100808354040283529160200191610364565b820191906000526020600020905b81548152906001019060200180831161034757829003601f168201915b505050505090806005018054610379906119a6565b80601f01602080910402602001604051908101604052809291908181526020018280546103a5906119a6565b80156103f25780601f106103c7576101008083540402835291602001916103f2565b820191906000526020600020905b8154815290600101906020018083116103d557829003601f168201915b505050505090806006018054610407906119a6565b80601f0160208091040260200160405190810160405280929190818152602001828054610433906119a6565b80156104805780601f1061045557610100808354040283529160200191610480565b820191906000526020600020905b81548152906001019060200180831161046357829003601f168201915b5050505050908060070154905088565b60606000805480602002602001604051908101604052809291908181526020016000905b8282101561082b578382906000526020600020906008020160405180610100016040529081600082015481526020016001820180546104f2906119a6565b80601f016020809104026020016040519081016040528092919081815260200182805461051e906119a6565b801561056b5780601f106105405761010080835404028352916020019161056b565b820191906000526020600020905b81548152906001019060200180831161054e57829003601f168201915b505050505081526020016002820160009054906101000a900473ffffffffffffffffffffffffffffffffffffffff1673ffffffffffffffffffffffffffffffffffffffff1673ffffffffffffffffffffffffffffffffffffffff1681526020016003820180546105da906119a6565b80601f0160208091040260200160405190810160405280929190818152602001828054610606906119a6565b80156106535780601f1061062857610100808354040283529160200191610653565b820191906000526020600020905b81548152906001019060200180831161063657829003601f168201915b5050505050815260200160048201805461066c906119a6565b80601f0160208091040260200160405190810160405280929190818152602001828054610698906119a6565b80156106e55780601f106106ba576101008083540402835291602001916106e5565b820191906000526020600020905b8154815290600101906020018083116106c857829003601f168201915b505050505081526020016005820180546106fe906119a6565b80601f016020809104026020016040519081016040528092919081815260200182805461072a906119a6565b80156107775780601f1061074c57610100808354040283529160200191610777565b820191906000526020600020905b81548152906001019060200180831161075a57829003601f168201915b50505050508152602001600682018054610790906119a6565b80601f01602080910402602001604051908101604052809291908181526020018280546107bc906119a6565b80156108095780601f106107de57610100808354040283529160200191610809565b820191906000526020600020905b8154815290600101906020018083116107ec57829003601f168201915b50505050508152602001600782015481525050815260200190600101906104b4565b50505050905090565b6060600160008373ffffffffffffffffffffffffffffffffffffffff1673ffffffffffffffffffffffffffffffffffffffff168152602001908152602001600020805480602002602001604051908101604052809291908181526020016000905b82821015610c0c578382906000526020600020906008020160405180610100016040529081600082015481526020016001820180546108d3906119a6565b80601f01602080910402602001604051908101604052809291908181526020018280546108ff906119a6565b801561094c5780601f106109215761010080835404028352916020019161094c565b820191906000526020600020905b81548152906001019060200180831161092f57829003601f168201915b505050505081526020016002820160009054906101000a900473ffffffffffffffffffffffffffffffffffffffff1673ffffffffffffffffffffffffffffffffffffffff1673ffffffffffffffffffffffffffffffffffffffff1681526020016003820180546109bb906119a6565b80601f01602080910402602001604051908101604052809291908181526020018280546109e7906119a6565b8015610a345780601f10610a0957610100808354040283529160200191610a34565b820191906000526020600020905b815481529060010190602001808311610a1757829003601f168201915b50505050508152602001600482018054610a4d906119a6565b80601f0160208091040260200160405190810160405280929190818152602001828054610a79906119a6565b8015610ac65780601f10610a9b57610100808354040283529160200191610ac6565b820191906000526020600020905b815481529060010190602001808311610aa957829003601f168201915b50505050508152602001600582018054610adf906119a6565b80601f0160208091040260200160405190810160405280929190818152602001828054610b0b906119a6565b8015610b585780601f10610b2d57610100808354040283529160200191610b58565b820191906000526020600020905b815481529060010190602001808311610b3b57829003601f168201915b50505050508152602001600682018054610b71906119a6565b80601f0160208091040260200160405190810160405280929190818152602001828054610b9d906119a6565b8015610bea5780601f10610bbf57610100808354040283529160200191610bea565b820191906000526020600020905b815481529060010190602001808311610bcd57829003601f168201915b5050505050815260200160078201548152505081526020019060010190610895565b505050509050919050565b6000825111610c5b576040517f08c379a0000000000000000000000000000000000000000000000000000000008152600401610c5290611a23565b60405180910390fd5b600060405180610100016040528060025481526020018781526020013373ffffffffffffffffffffffffffffffffffffffff1681526020018681526020018581526020018481526020018381526020014281525090506000819080600181540180825580915050600190039060005260206000209060080201600090919091909150600082015181600001556020820151816001019081610cfc9190611bef565b5060408201518160020160006101000a81548173ffffffffffffffffffffffffffffffffffffffff021916908373ffffffffffffffffffffffffffffffffffffffff1602179055506060820151816003019081610d599190611bef565b506080820151816004019081610d6f9190611bef565b5060a0820151816005019081610d859190611bef565b5060c0820151816006019081610d9b9190611bef565b5060e082015181600701555050600160003373ffffffffffffffffffffffffffffffffffffffff1673ffffffffffffffffffffffffffffffffffffffff168152602001908152602001600020819080600181540180825580915050600190039060005260206000209060080201600090919091909150600082015181600001556020820151816001019081610e309190611bef565b5060408201518160020160006101000a81548173ffffffffffffffffffffffffffffffffffffffff021916908373ffffffffffffffffffffffffffffffffffffffff1602179055506060820151816003019081610e8d9190611bef565b506080820151816004019081610ea39190611bef565b5060a0820151816005019081610eb99190611bef565b5060c0820151816006019081610ecf9190611bef565b5060e0820151816007015550503373ffffffffffffffffffffffffffffffffffffffff166002547f953e4e9f05fed1c6e1b4cc1efc2385f0251fad593397b799e4e85baa251acc79878988888842604051610f2f96959493929190611cc1565b60405180910390a360026000815480929190610f4a90611d74565b9190505550505050505050565b60008181548110610f6757600080fd5b9060005260206000209060080201600091509050806000015490806001018054610f90906119a6565b80601f0160208091040260200160405190810160405280929190818152602001828054610fbc906119a6565b80156110095780601f10610fde57610100808354040283529160200191611009565b820191906000526020600020905b815481529060010190602001808311610fec57829003601f168201915b5050505050908060020160009054906101000a900473ffffffffffffffffffffffffffffffffffffffff1690806003018054611044906119a6565b80601f0160208091040260200160405190810160405280929190818152602001828054611070906119a6565b80156110bd5780601f10611092576101008083540402835291602001916110bd565b820191906000526020600020905b8154815290600101906020018083116110a057829003601f168201915b5050505050908060040180546110d2906119a6565b80601f01602080910402602001604051908101604052809291908181526020018280546110fe906119a6565b801561114b5780601f106111205761010080835404028352916020019161114b565b820191906000526020600020905b81548152906001019060200180831161112e57829003601f168201915b505050505090806005018054611160906119a6565b80601f016020809104026020016040519081016040528092919081815260200182805461118c906119a6565b80156111d95780601f106111ae576101008083540402835291602001916111d9565b820191906000526020600020905b8154815290600101906020018083116111bc57829003601f168201915b5050505050908060060180546111ee906119a6565b80601f016020809104026020016040519081016040528092919081815260200182805461121a906119a6565b80156112675780601f1061123c57610100808354040283529160200191611267565b820191906000526020600020905b81548152906001019060200180831161124a57829003601f168201915b5050505050908060070154905088565b6000819050919050565b61128a81611277565b82525050565b60006020820190506112a56000830184611281565b92915050565b6000604051905090565b600080fd5b600080fd5b600073ffffffffffffffffffffffffffffffffffffffff82169050919050565b60006112ea826112bf565b9050919050565b6112fa816112df565b811461130557600080fd5b50565b600081359050611317816112f1565b92915050565b61132681611277565b811461133157600080fd5b50565b6000813590506113438161131d565b92915050565b600080604083850312156113605761135f6112b5565b5b600061136e85828601611308565b925050602061137f85828601611334565b9150509250929050565b600081519050919050565b600082825260208201905092915050565b60005b838110156113c35780820151818401526020810190506113a8565b60008484015250505050565b6000601f19601f8301169050919050565b60006113eb82611389565b6113f58185611394565b93506114058185602086016113a5565b61140e816113cf565b840191505092915050565b611422816112df565b82525050565b60006101008201905061143e600083018b611281565b8181036020830152611450818a6113e0565b905061145f6040830189611419565b818103606083015261147181886113e0565b9050818103608083015261148581876113e0565b905081810360a083015261149981866113e0565b905081810360c08301526114ad81856113e0565b90506114bc60e0830184611281565b9998505050505050505050565b600081519050919050565b600082825260208201905092915050565b6000819050602082019050919050565b6114fe81611277565b82525050565b600082825260208201905092915050565b600061152082611389565b61152a8185611504565b935061153a8185602086016113a5565b611543816113cf565b840191505092915050565b611557816112df565b82525050565b60006101008301600083015161157660008601826114f5565b506020830151848203602086015261158e8282611515565b91505060408301516115a3604086018261154e565b50606083015184820360608601526115bb8282611515565b915050608083015184820360808601526115d58282611515565b91505060a083015184820360a08601526115ef8282611515565b91505060c083015184820360c08601526116098282611515565b91505060e083015161161e60e08601826114f5565b508091505092915050565b6000611635838361155d565b905092915050565b6000602082019050919050565b6000611655826114c9565b61165f81856114d4565b935083602082028501611671856114e5565b8060005b858110156116ad578484038952815161168e8582611629565b94506116998361163d565b925060208a01995050600181019050611675565b50829750879550505050505092915050565b600060208201905081810360008301526116d9818461164a565b905092915050565b6000602082840312156116f7576116f66112b5565b5b600061170584828501611308565b91505092915050565b600080fd5b600080fd5b7f4e487b7100000000000000000000000000000000000000000000000000000000600052604160045260246000fd5b611750826113cf565b810181811067ffffffffffffffff8211171561176f5761176e611718565b5b80604052505050565b60006117826112ab565b905061178e8282611747565b919050565b600067ffffffffffffffff8211156117ae576117ad611718565b5b6117b7826113cf565b9050602081019050919050565b82818337600083830152505050565b60006117e66117e184611793565b611778565b90508281526020810184848401111561180257611801611713565b5b61180d8482856117c4565b509392505050565b600082601f83011261182a5761182961170e565b5b813561183a8482602086016117d3565b91505092915050565b600080600080600060a0868803121561185f5761185e6112b5565b5b600086013567ffffffffffffffff81111561187d5761187c6112ba565b5b61188988828901611815565b955050602086013567ffffffffffffffff8111156118aa576118a96112ba565b5b6118b688828901611815565b945050604086013567ffffffffffffffff8111156118d7576118d66112ba565b5b6118e388828901611815565b935050606086013567ffffffffffffffff811115611904576119036112ba565b5b61191088828901611815565b925050608086013567ffffffffffffffff811115611931576119306112ba565b5b61193d88828901611815565b9150509295509295909350565b6000602082840312156119605761195f6112b5565b5b600061196e84828501611334565b91505092915050565b7f4e487b7100000000000000000000000000000000000000000000000000000000600052602260045260246000fd5b600060028204905060018216806119be57607f821691505b6020821081036119d1576119d0611977565b5b50919050565b7f547765657420636f6e74656e742063616e6e6f7420626520656d707479000000600082015250565b6000611a0d601d83611394565b9150611a18826119d7565b602082019050919050565b60006020820190508181036000830152611a3c81611a00565b9050919050565b60008190508160005260206000209050919050565b60006020601f8301049050919050565b600082821b905092915050565b600060088302611aa57fffffffffffffffffffffffffffffffffffffffffffffffffffffffffffffffff82611a68565b611aaf8683611a68565b95508019841693508086168417925050509392505050565b6000819050919050565b6000611aec611ae7611ae284611277565b611ac7565b611277565b9050919050565b6000819050919050565b611b0683611ad1565b611b1a611b1282611af3565b848454611a75565b825550505050565b600090565b611b2f611b22565b611b3a818484611afd565b505050565b5b81811015611b5e57611b53600082611b27565b600181019050611b40565b5050565b601f821115611ba357611b7481611a43565b611b7d84611a58565b81016020851015611b8c578190505b611ba0611b9885611a58565b830182611b3f565b50505b505050565b600082821c905092915050565b6000611bc660001984600802611ba8565b1980831691505092915050565b6000611bdf8383611bb5565b9150826002028217905092915050565b611bf882611389565b67ffffffffffffffff811115611c1157611c10611718565b5b611c1b82546119a6565b611c26828285611b62565b600060209050601f831160018114611c595760008415611c47578287015190505b611c518582611bd3565b865550611cb9565b601f198416611c6786611a43565b60005b82811015611c8f57848901518255600182019150602085019450602081019050611c6a565b86831015611cac5784890151611ca8601f891682611bb5565b8355505b6001600288020188555050505b505050505050565b600060c0820190508181036000830152611cdb81896113e0565b90508181036020830152611cef81886113e0565b90508181036040830152611d0381876113e0565b90508181036060830152611d1781866113e0565b90508181036080830152611d2b81856113e0565b9050611d3a60a0830184611281565b979650505050505050565b7f4e487b7100000000000000000000000000000000000000000000000000000000600052601160045260246000fd5b6000611d7f82611277565b91507fffffffffffffffffffffffffffffffffffffffffffffffffffffffffffffffff8203611db157611db0611d45565b5b60018201905091905056fea2646970667358221220719c990123e100478402daecda4f9b30f70bff672bcf67a06052ad4f3a5abb7d64736f6c63430008110033",
  "linkReferences": {},
  "deployedLinkReferences": {}
}