{
  "_format": "hh-sol-artifact-1",
  "contractName": "PostInteractions",
  "sourceName": "contracts/PostInteractions.sol",
  "abi": [
    {
      "inputs": [
        {
          "internalType": "address",
          "name": "_postTweetAddress",
          "type": "address"
        }
      ],
      "stateMutability": "nonpayable",
      "type": "constructor"
    },
    {
      "anonymous": false,
      "inputs": [
        {
          "indexed": true,
          "internalType": "address",
          "name": "user",
          "type": "address"
        },
        {
          "indexed": true,
          "internalType": "address",
          "name": "author",
          "type": "address"
        },
        {
          "indexed": true,
          "internalType": "uint256",
          "name": "tweetId",
          "type": "uint256"
        }
      ],
      "name": "TweetLiked",
      "type": "event"
    },
    {
      "anonymous": false,
      "inputs": [
        {
          "indexed": true,
          "internalType": "address",
          "name": "user",
          "type": "address"
        },
        {
          "indexed": true,
          "internalType": "address",
          "name": "author",
          "type": "address"
        },
        {
          "indexed": true,
          "internalType": "uint256",
          "name": "tweetId",
          "type": "uint256"
        }
      ],
      "name": "TweetUnliked",
      "type": "event"
    },
    {
      "inputs": [
        {
          "internalType": "address",
          "name": "author",
          "type": "address"
        },
        {
          "internalType": "uint256",
          "name": "tweetId",
          "type": "uint256"
        }
      ],
      "name": "getTotalLikes",
      "outputs": [
        {
          "internalType": "uint256",
          "name": "",
          "type": "uint256"
        }
      ],
      "stateMutability": "view",
      "type": "function"
    },
    {
      "inputs": [
        {
          "internalType": "address",
          "name": "author",
          "type": "address"
        },
        {
          "internalType": "uint256",
          "name": "tweetId",
          "type": "uint256"
        }
      ],
      "name": "isLiked",
      "outputs": [
        {
          "internalType": "bool",
          "name": "",
          "type": "bool"
        }
      ],
      "stateMutability": "view",
      "type": "function"
    },
    {
      "inputs": [
        {
          "internalType": "address",
          "name": "",
          "type": "address"
        },
        {
          "internalType": "uint256",
          "name": "",
          "type": "uint256"
        }
      ],
      "name": "likeCount",
      "outputs": [
        {
          "internalType": "uint256",
          "name": "",
          "type": "uint256"
        }
      ],
      "stateMutability": "view",
      "type": "function"
    },
    {
      "inputs": [
        {
          "internalType": "address",
          "name": "author",
          "type": "address"
        },
        {
          "internalType": "uint256",
          "name": "tweetId",
          "type": "uint256"
        }
      ],
      "name": "likeTweet",
      "outputs": [],
      "stateMutability": "nonpayable",
      "type": "function"
    },
    {
      "inputs": [
        {
          "internalType": "address",
          "name": "",
          "type": "address"
        },
        {
          "internalType": "address",
          "name": "",
          "type": "address"
        },
        {
          "internalType": "uint256",
          "name": "",
          "type": "uint256"
        }
      ],
      "name": "likes",
      "outputs": [
        {
          "internalType": "bool",
          "name": "",
          "type": "bool"
        }
      ],
      "stateMutability": "view",
      "type": "function"
    },
    {
      "inputs": [],
      "name": "postTweet",
      "outputs": [
        {
          "internalType": "contract PostTweet",
          "name": "",
          "type": "address"
        }
      ],
      "stateMutability": "view",
      "type": "function"
    },
    {
      "inputs": [
        {
          "internalType": "address",
          "name": "author",
          "type": "address"
        },
        {
          "internalType": "uint256",
          "name": "tweetId",
          "type": "uint256"
        }
      ],
      "name": "unlikeTweet",
      "outputs": [],
      "stateMutability": "nonpayable",
      "type": "function"
    }
  ],
  "bytecode": "0x608060405234801561001057600080fd5b50604051610ca4380380610ca4833981810160405281019061003291906100db565b806000806101000a81548173ffffffffffffffffffffffffffffffffffffffff021916908373ffffffffffffffffffffffffffffffffffffffff16021790555050610108565b600080fd5b600073ffffffffffffffffffffffffffffffffffffffff82169050919050565b60006100a88261007d565b9050919050565b6100b88161009d565b81146100c357600080fd5b50565b6000815190506100d5816100af565b92915050565b6000602082840312156100f1576100f0610078565b5b60006100ff848285016100c6565b91505092915050565b610b8d806101176000396000f3fe608060405234801561001057600080fd5b506004361061007d5760003560e01c8063493f41d91161005b578063493f41d9146100fe578063633782161461011c578063a749e29c14610138578063ddbe7afc146101685761007d565b8063066e146e14610082578063346d971d146100b25780633d9b569f146100e2575b600080fd5b61009c60048036038101906100979190610844565b610198565b6040516100a99190610893565b60405180910390f35b6100cc60048036038101906100c79190610844565b6101bd565b6040516100d991906108c9565b60405180910390f35b6100fc60048036038101906100f79190610844565b610262565b005b6101066104a9565b6040516101139190610943565b60405180910390f35b61013660048036038101906101319190610844565b6104cd565b005b610152600480360381019061014d919061095e565b610714565b60405161015f91906108c9565b60405180910390f35b610182600480360381019061017d9190610844565b610750565b60405161018f9190610893565b60405180910390f35b6002602052816000526040600020602052806000526040600020600091509150505481565b6000600160003373ffffffffffffffffffffffffffffffffffffffff1673ffffffffffffffffffffffffffffffffffffffff16815260200190815260200160002060008473ffffffffffffffffffffffffffffffffffffffff1673ffffffffffffffffffffffffffffffffffffffff168152602001908152602001600020600083815260200190815260200160002060009054906101000a900460ff16905092915050565b600160003373ffffffffffffffffffffffffffffffffffffffff1673ffffffffffffffffffffffffffffffffffffffff16815260200190815260200160002060008373ffffffffffffffffffffffffffffffffffffffff1673ffffffffffffffffffffffffffffffffffffffff168152602001908152602001600020600082815260200190815260200160002060009054906101000a900460ff1661033c576040517f08c379a000000000000000000000000000000000000000000000000000000000815260040161033390610a0e565b60405180910390fd5b6000600160003373ffffffffffffffffffffffffffffffffffffffff1673ffffffffffffffffffffffffffffffffffffffff16815260200190815260200160002060008473ffffffffffffffffffffffffffffffffffffffff1673ffffffffffffffffffffffffffffffffffffffff168152602001908152602001600020600083815260200190815260200160002060006101000a81548160ff0219169083151502179055506001600260008473ffffffffffffffffffffffffffffffffffffffff1673ffffffffffffffffffffffffffffffffffffffff168152602001908152602001600020600083815260200190815260200160002060008282546104439190610a5d565b92505081905550808273ffffffffffffffffffffffffffffffffffffffff163373ffffffffffffffffffffffffffffffffffffffff167fb58ed4b89ca4d829a75de89912b2e43d4953c28753d53e5303767d295938076160405160405180910390a45050565b60008054906101000a900473ffffffffffffffffffffffffffffffffffffffff1681565b600160003373ffffffffffffffffffffffffffffffffffffffff1673ffffffffffffffffffffffffffffffffffffffff16815260200190815260200160002060008373ffffffffffffffffffffffffffffffffffffffff1673ffffffffffffffffffffffffffffffffffffffff168152602001908152602001600020600082815260200190815260200160002060009054906101000a900460ff16156105a8576040517f08c379a000000000000000000000000000000000000000000000000000000000815260040161059f90610b03565b60405180910390fd5b60018060003373ffffffffffffffffffffffffffffffffffffffff1673ffffffffffffffffffffffffffffffffffffffff16815260200190815260200160002060008473ffffffffffffffffffffffffffffffffffffffff1673ffffffffffffffffffffffffffffffffffffffff168152602001908152602001600020600083815260200190815260200160002060006101000a81548160ff0219169083151502179055506001600260008473ffffffffffffffffffffffffffffffffffffffff1673ffffffffffffffffffffffffffffffffffffffff168152602001908152602001600020600083815260200190815260200160002060008282546106ae9190610b23565b92505081905550808273ffffffffffffffffffffffffffffffffffffffff163373ffffffffffffffffffffffffffffffffffffffff167f7c4b06baee4c2050d672eef0084a1baaf8d938d7f9eddc476d9a89847171b53760405160405180910390a45050565b6001602052826000526040600020602052816000526040600020602052806000526040600020600092509250509054906101000a900460ff1681565b6000600260008473ffffffffffffffffffffffffffffffffffffffff1673ffffffffffffffffffffffffffffffffffffffff168152602001908152602001600020600083815260200190815260200160002054905092915050565b600080fd5b600073ffffffffffffffffffffffffffffffffffffffff82169050919050565b60006107db826107b0565b9050919050565b6107eb816107d0565b81146107f657600080fd5b50565b600081359050610808816107e2565b92915050565b6000819050919050565b6108218161080e565b811461082c57600080fd5b50565b60008135905061083e81610818565b92915050565b6000806040838503121561085b5761085a6107ab565b5b6000610869858286016107f9565b925050602061087a8582860161082f565b9150509250929050565b61088d8161080e565b82525050565b60006020820190506108a86000830184610884565b92915050565b60008115159050919050565b6108c3816108ae565b82525050565b60006020820190506108de60008301846108ba565b92915050565b6000819050919050565b60006109096109046108ff846107b0565b6108e4565b6107b0565b9050919050565b600061091b826108ee565b9050919050565b600061092d82610910565b9050919050565b61093d81610922565b82525050565b60006020820190506109586000830184610934565b92915050565b600080600060608486031215610977576109766107ab565b5b6000610985868287016107f9565b9350506020610996868287016107f9565b92505060406109a78682870161082f565b9150509250925092565b600082825260208201905092915050565b7f596f752068617665206e6f74206c696b656420746869732074776565742e0000600082015250565b60006109f8601e836109b1565b9150610a03826109c2565b602082019050919050565b60006020820190508181036000830152610a27816109eb565b9050919050565b7f4e487b7100000000000000000000000000000000000000000000000000000000600052601160045260246000fd5b6000610a688261080e565b9150610a738361080e565b9250828203905081811115610a8b57610a8a610a2e565b5b92915050565b7f596f75206861766520616c7265616479206c696b65642074686973207477656560008201527f7400000000000000000000000000000000000000000000000000000000000000602082015250565b6000610aed6021836109b1565b9150610af882610a91565b604082019050919050565b60006020820190508181036000830152610b1c81610ae0565b9050919050565b6000610b2e8261080e565b9150610b398361080e565b9250828201905080821115610b5157610b50610a2e565b5b9291505056fea2646970667358221220ed73cfa4ed22e7a26e362ff1a3e277b19d2b7e9d5c6aecdda92b780c23547a9964736f6c63430008110033",
  "linkReferences": {},
  "deployedLinkReferences": {}
}