{
  "_format": "hh-sol-artifact-1",
  "contractName": "PostTweet",
  "sourceName": "contracts/PostTweet.sol",
  "abi": [
    {
      "inputs": [
        {
          "internalType": "address",
          "name": "_followSystemAddress",
          "type": "address"
        }
      ],
      "stateMutability": "nonpayable",
      "type": "constructor"
    },
    {
      "anonymous": false,
      "inputs": [
        {
          "indexed": true,
          "internalType": "uint256",
          "name": "tweetId",
          "type": "uint256"
        },
        {
          "indexed": true,
          "internalType": "address",
          "name": "author",
          "type": "address"
        },
        {
          "indexed": false,
          "internalType": "string",
          "name": "authorID",
          "type": "string"
        },
        {
          "indexed": false,
          "internalType": "string",
          "name": "name",
          "type": "string"
        },
        {
          "indexed": false,
          "internalType": "string",
          "name": "avatar",
          "type": "string"
        },
        {
          "indexed": false,
          "internalType": "string",
          "name": "content",
          "type": "string"
        },
        {
          "indexed": false,
          "internalType": "string",
          "name": "mediaCID",
          "type": "string"
        },
        {
          "indexed": false,
          "internalType": "uint256",
          "name": "timestamp",
          "type": "uint256"
        }
      ],
      "name": "TweetPosted",
      "type": "event"
    },
    {
      "inputs": [
        {
          "internalType": "uint256",
          "name": "",
          "type": "uint256"
        }
      ],
      "name": "allTweets",
      "outputs": [
        {
          "internalType": "uint256",
          "name": "id",
          "type": "uint256"
        },
        {
          "internalType": "string",
          "name": "name",
          "type": "string"
        },
        {
          "internalType": "address",
          "name": "author",
          "type": "address"
        },
        {
          "internalType": "string",
          "name": "authorID",
          "type": "string"
        },
        {
          "internalType": "string",
          "name": "avatar",
          "type": "string"
        },
        {
          "internalType": "string",
          "name": "content",
          "type": "string"
        },
        {
          "internalType": "string",
          "name": "mediaCID",
          "type": "string"
        },
        {
          "internalType": "uint256",
          "name": "timestamp",
          "type": "uint256"
        }
      ],
      "stateMutability": "view",
      "type": "function"
    },
    {
      "inputs": [],
      "name": "followSystem",
      "outputs": [
        {
          "internalType": "contract FollowSystem",
          "name": "",
          "type": "address"
        }
      ],
      "stateMutability": "view",
      "type": "function"
    },
    {
      "inputs": [],
      "name": "getAllTweets",
      "outputs": [
        {
          "components": [
            {
              "internalType": "uint256",
              "name": "id",
              "type": "uint256"
            },
            {
              "internalType": "string",
              "name": "name",
              "type": "string"
            },
            {
              "internalType": "address",
              "name": "author",
              "type": "address"
            },
            {
              "internalType": "string",
              "name": "authorID",
              "type": "string"
            },
            {
              "internalType": "string",
              "name": "avatar",
              "type": "string"
            },
            {
              "internalType": "string",
              "name": "content",
              "type": "string"
            },
            {
              "internalType": "string",
              "name": "mediaCID",
              "type": "string"
            },
            {
              "internalType": "uint256",
              "name": "timestamp",
              "type": "uint256"
            }
          ],
          "internalType": "struct PostTweet.Tweet[]",
          "name": "",
          "type": "tuple[]"
        }
      ],
      "stateMutability": "view",
      "type": "function"
    },
    {
      "inputs": [],
      "name": "getTweetsByFollowing",
      "outputs": [
        {
          "components": [
            {
              "internalType": "uint256",
              "name": "id",
              "type": "uint256"
            },
            {
              "internalType": "string",
              "name": "name",
              "type": "string"
            },
            {
              "internalType": "address",
              "name": "author",
              "type": "address"
            },
            {
              "internalType": "string",
              "name": "authorID",
              "type": "string"
            },
            {
              "internalType": "string",
              "name": "avatar",
              "type": "string"
            },
            {
              "internalType": "string",
              "name": "content",
              "type": "string"
            },
            {
              "internalType": "string",
              "name": "mediaCID",
              "type": "string"
            },
            {
              "internalType": "uint256",
              "name": "timestamp",
              "type": "uint256"
            }
          ],
          "internalType": "struct PostTweet.Tweet[]",
          "name": "",
          "type": "tuple[]"
        }
      ],
      "stateMutability": "view",
      "type": "function"
    },
    {
      "inputs": [
        {
          "internalType": "address",
          "name": "_user",
          "type": "address"
        }
      ],
      "name": "getTweetsByUser",
      "outputs": [
        {
          "components": [
            {
              "internalType": "uint256",
              "name": "id",
              "type": "uint256"
            },
            {
              "internalType": "string",
              "name": "name",
              "type": "string"
            },
            {
              "internalType": "address",
              "name": "author",
              "type": "address"
            },
            {
              "internalType": "string",
              "name": "authorID",
              "type": "string"
            },
            {
              "internalType": "string",
              "name": "avatar",
              "type": "string"
            },
            {
              "internalType": "string",
              "name": "content",
              "type": "string"
            },
            {
              "internalType": "string",
              "name": "mediaCID",
              "type": "string"
            },
            {
              "internalType": "uint256",
              "name": "timestamp",
              "type": "uint256"
            }
          ],
          "internalType": "struct PostTweet.Tweet[]",
          "name": "",
          "type": "tuple[]"
        }
      ],
      "stateMutability": "view",
      "type": "function"
    },
    {
      "inputs": [
        {
          "internalType": "string",
          "name": "_name",
          "type": "string"
        },
        {
          "internalType": "string",
          "name": "_authorID",
          "type": "string"
        },
        {
          "internalType": "string",
          "name": "_avatar",
          "type": "string"
        },
        {
          "internalType": "string",
          "name": "_content",
          "type": "string"
        },
        {
          "internalType": "string",
          "name": "_mediaCID",
          "type": "string"
        }
      ],
      "name": "postTweet",
      "outputs": [],
      "stateMutability": "nonpayable",
      "type": "function"
    },
    {
      "inputs": [],
      "name": "tweetCounter",
      "outputs": [
        {
          "internalType": "uint256",
          "name": "",
          "type": "uint256"
        }
      ],
      "stateMutability": "view",
      "type": "function"
    },
    {
      "inputs": [
        {
          "internalType": "address",
          "name": "",
          "type": "address"
        },
        {
          "internalType": "uint256",
          "name": "",
          "type": "uint256"
        }
      ],
      "name": "userTweets",
      "outputs": [
        {
          "internalType": "uint256",
          "name": "id",
          "type": "uint256"
        },
        {
          "internalType": "string",
          "name": "name",
          "type": "string"
        },
        {
          "internalType": "address",
          "name": "author",
          "type": "address"
        },
        {
          "internalType": "string",
          "name": "authorID",
          "type": "string"
        },
        {
          "internalType": "string",
          "name": "avatar",
          "type": "string"
        },
        {
          "internalType": "string",
          "name": "content",
          "type": "string"
        },
        {
          "internalType": "string",
          "name": "mediaCID",
          "type": "string"
        },
        {
          "internalType": "uint256",
          "name": "timestamp",
          "type": "uint256"
        }
      ],
      "stateMutability": "view",
      "type": "function"
    }
  ],
  "bytecode": "0x60806040523480156200001157600080fd5b5060405162002825380380620028258339818101604052810190620000379190620000e8565b806000806101000a81548173ffffffffffffffffffffffffffffffffffffffff021916908373ffffffffffffffffffffffffffffffffffffffff160217905550506200011a565b600080fd5b600073ffffffffffffffffffffffffffffffffffffffff82169050919050565b6000620000b08262000083565b9050919050565b620000c281620000a3565b8114620000ce57600080fd5b50565b600081519050620000e281620000b7565b92915050565b6000602082840312156200010157620001006200007e565b5b60006200011184828501620000d1565b91505092915050565b6126fb806200012a6000396000f3fe608060405234801561001057600080fd5b50600436106100885760003560e01c8063c66137661161005b578063c661376614610130578063e28350b71461014c578063ea4aaa0914610183578063f209f6d2146101a157610088565b806322b13ac81461008d5780632e06f347146100ab57806353256135146100e2578063707c54e514610100575b600080fd5b6100956101bf565b6040516100a29190611985565b60405180910390f35b6100c560048036038101906100c09190611a3e565b6101c5565b6040516100d9989796959493929190611b1d565b60405180910390f35b6100ea6104f2565b6040516100f79190611db4565b60405180910390f35b61011a60048036038101906101159190611dd6565b610896565b6040516101279190611db4565b60405180910390f35b61014a60048036038101906101459190611f38565b610c79565b005b6101666004803603810190610161919061203f565b610fb9565b60405161017a989796959493929190611b1d565b60405180910390f35b61018b6112d9565b6040516101989190611db4565b60405180910390f35b6101a96118ed565b6040516101b691906120cb565b60405180910390f35b60035481565b600260205281600052604060002081815481106101e157600080fd5b90600052602060002090600802016000915091505080600001549080600101805461020b90612115565b80601f016020809104026020016040519081016040528092919081815260200182805461023790612115565b80156102845780601f1061025957610100808354040283529160200191610284565b820191906000526020600020905b81548152906001019060200180831161026757829003601f168201915b5050505050908060020160009054906101000a900473ffffffffffffffffffffffffffffffffffffffff16908060030180546102bf90612115565b80601f01602080910402602001604051908101604052809291908181526020018280546102eb90612115565b80156103385780601f1061030d57610100808354040283529160200191610338565b820191906000526020600020905b81548152906001019060200180831161031b57829003601f168201915b50505050509080600401805461034d90612115565b80601f016020809104026020016040519081016040528092919081815260200182805461037990612115565b80156103c65780601f1061039b576101008083540402835291602001916103c6565b820191906000526020600020905b8154815290600101906020018083116103a957829003601f168201915b5050505050908060050180546103db90612115565b80601f016020809104026020016040519081016040528092919081815260200182805461040790612115565b80156104545780601f1061042957610100808354040283529160200191610454565b820191906000526020600020905b81548152906001019060200180831161043757829003601f168201915b50505050509080600601805461046990612115565b80601f016020809104026020016040519081016040528092919081815260200182805461049590612115565b80156104e25780601f106104b7576101008083540402835291602001916104e2565b820191906000526020600020905b8154815290600101906020018083116104c557829003601f168201915b5050505050908060070154905088565b60606001805480602002602001604051908101604052809291908181526020016000905b8282101561088d5783829060005260206000209060080201604051806101000160405290816000820154815260200160018201805461055490612115565b80601f016020809104026020016040519081016040528092919081815260200182805461058090612115565b80156105cd5780601f106105a2576101008083540402835291602001916105cd565b820191906000526020600020905b8154815290600101906020018083116105b057829003601f168201915b505050505081526020016002820160009054906101000a900473ffffffffffffffffffffffffffffffffffffffff1673ffffffffffffffffffffffffffffffffffffffff1673ffffffffffffffffffffffffffffffffffffffff16815260200160038201805461063c90612115565b80601f016020809104026020016040519081016040528092919081815260200182805461066890612115565b80156106b55780601f1061068a576101008083540402835291602001916106b5565b820191906000526020600020905b81548152906001019060200180831161069857829003601f168201915b505050505081526020016004820180546106ce90612115565b80601f01602080910402602001604051908101604052809291908181526020018280546106fa90612115565b80156107475780601f1061071c57610100808354040283529160200191610747565b820191906000526020600020905b81548152906001019060200180831161072a57829003601f168201915b5050505050815260200160058201805461076090612115565b80601f016020809104026020016040519081016040528092919081815260200182805461078c90612115565b80156107d95780601f106107ae576101008083540402835291602001916107d9565b820191906000526020600020905b8154815290600101906020018083116107bc57829003601f168201915b505050505081526020016006820180546107f290612115565b80601f016020809104026020016040519081016040528092919081815260200182805461081e90612115565b801561086b5780601f106108405761010080835404028352916020019161086b565b820191906000526020600020905b81548152906001019060200180831161084e57829003601f168201915b5050505050815260200160078201548152505081526020019060010190610516565b50505050905090565b6060600260008373ffffffffffffffffffffffffffffffffffffffff1673ffffffffffffffffffffffffffffffffffffffff168152602001908152602001600020805480602002602001604051908101604052809291908181526020016000905b82821015610c6e5783829060005260206000209060080201604051806101000160405290816000820154815260200160018201805461093590612115565b80601f016020809104026020016040519081016040528092919081815260200182805461096190612115565b80156109ae5780601f10610983576101008083540402835291602001916109ae565b820191906000526020600020905b81548152906001019060200180831161099157829003601f168201915b505050505081526020016002820160009054906101000a900473ffffffffffffffffffffffffffffffffffffffff1673ffffffffffffffffffffffffffffffffffffffff1673ffffffffffffffffffffffffffffffffffffffff168152602001600382018054610a1d90612115565b80601f0160208091040260200160405190810160405280929190818152602001828054610a4990612115565b8015610a965780601f10610a6b57610100808354040283529160200191610a96565b820191906000526020600020905b815481529060010190602001808311610a7957829003601f168201915b50505050508152602001600482018054610aaf90612115565b80601f0160208091040260200160405190810160405280929190818152602001828054610adb90612115565b8015610b285780601f10610afd57610100808354040283529160200191610b28565b820191906000526020600020905b815481529060010190602001808311610b0b57829003601f168201915b50505050508152602001600582018054610b4190612115565b80601f0160208091040260200160405190810160405280929190818152602001828054610b6d90612115565b8015610bba5780601f10610b8f57610100808354040283529160200191610bba565b820191906000526020600020905b815481529060010190602001808311610b9d57829003601f168201915b50505050508152602001600682018054610bd390612115565b80601f0160208091040260200160405190810160405280929190818152602001828054610bff90612115565b8015610c4c5780601f10610c2157610100808354040283529160200191610c4c565b820191906000526020600020905b815481529060010190602001808311610c2f57829003601f168201915b50505050508152602001600782015481525050815260200190600101906108f7565b505050509050919050565b6000825111610cbd576040517f08c379a0000000000000000000000000000000000000000000000000000000008152600401610cb490612192565b60405180910390fd5b600060405180610100016040528060035481526020018781526020013373ffffffffffffffffffffffffffffffffffffffff1681526020018681526020018581526020018481526020018381526020014281525090506001819080600181540180825580915050600190039060005260206000209060080201600090919091909150600082015181600001556020820151816001019081610d5e9190612354565b5060408201518160020160006101000a81548173ffffffffffffffffffffffffffffffffffffffff021916908373ffffffffffffffffffffffffffffffffffffffff1602179055506060820151816003019081610dbb9190612354565b506080820151816004019081610dd19190612354565b5060a0820151816005019081610de79190612354565b5060c0820151816006019081610dfd9190612354565b5060e082015181600701555050600260003373ffffffffffffffffffffffffffffffffffffffff1673ffffffffffffffffffffffffffffffffffffffff168152602001908152602001600020819080600181540180825580915050600190039060005260206000209060080201600090919091909150600082015181600001556020820151816001019081610e929190612354565b5060408201518160020160006101000a81548173ffffffffffffffffffffffffffffffffffffffff021916908373ffffffffffffffffffffffffffffffffffffffff1602179055506060820151816003019081610eef9190612354565b506080820151816004019081610f059190612354565b5060a0820151816005019081610f1b9190612354565b5060c0820151816006019081610f319190612354565b5060e0820151816007015550503373ffffffffffffffffffffffffffffffffffffffff166003547f953e4e9f05fed1c6e1b4cc1efc2385f0251fad593397b799e4e85baa251acc79878988888842604051610f9196959493929190612426565b60405180910390a360036000815480929190610fac906124d9565b9190505550505050505050565b60018181548110610fc957600080fd5b9060005260206000209060080201600091509050806000015490806001018054610ff290612115565b80601f016020809104026020016040519081016040528092919081815260200182805461101e90612115565b801561106b5780601f106110405761010080835404028352916020019161106b565b820191906000526020600020905b81548152906001019060200180831161104e57829003601f168201915b5050505050908060020160009054906101000a900473ffffffffffffffffffffffffffffffffffffffff16908060030180546110a690612115565b80601f01602080910402602001604051908101604052809291908181526020018280546110d290612115565b801561111f5780601f106110f45761010080835404028352916020019161111f565b820191906000526020600020905b81548152906001019060200180831161110257829003601f168201915b50505050509080600401805461113490612115565b80601f016020809104026020016040519081016040528092919081815260200182805461116090612115565b80156111ad5780601f10611182576101008083540402835291602001916111ad565b820191906000526020600020905b81548152906001019060200180831161119057829003601f168201915b5050505050908060050180546111c290612115565b80601f01602080910402602001604051908101604052809291908181526020018280546111ee90612115565b801561123b5780601f106112105761010080835404028352916020019161123b565b820191906000526020600020905b81548152906001019060200180831161121e57829003601f168201915b50505050509080600601805461125090612115565b80601f016020809104026020016040519081016040528092919081815260200182805461127c90612115565b80156112c95780601f1061129e576101008083540402835291602001916112c9565b820191906000526020600020905b8154815290600101906020018083116112ac57829003601f168201915b5050505050908060070154905088565b606060008060009054906101000a900473ffffffffffffffffffffffffffffffffffffffff1673ffffffffffffffffffffffffffffffffffffffff1663d8236dff336040518263ffffffff1660e01b81526004016113379190612521565b600060405180830381865afa158015611354573d6000803e3d6000fd5b505050506040513d6000823e3d601f19601f8201168201806040525081019061137d9190612619565b90506000805b825181101561140957600260008483815181106113a3576113a2612662565b5b602002602001015173ffffffffffffffffffffffffffffffffffffffff1673ffffffffffffffffffffffffffffffffffffffff16815260200190815260200160002080549050826113f49190612691565b91508080611401906124d9565b915050611383565b5060008167ffffffffffffffff81111561142657611425611e0d565b5b60405190808252806020026020018201604052801561145f57816020015b61144c611911565b8152602001906001900390816114445790505b5090506000805b84518110156118e25760006002600087848151811061148857611487612662565b5b602002602001015173ffffffffffffffffffffffffffffffffffffffff1673ffffffffffffffffffffffffffffffffffffffff168152602001908152602001600020805480602002602001604051908101604052809291908181526020016000905b828210156118615783829060005260206000209060080201604051806101000160405290816000820154815260200160018201805461152890612115565b80601f016020809104026020016040519081016040528092919081815260200182805461155490612115565b80156115a15780601f10611576576101008083540402835291602001916115a1565b820191906000526020600020905b81548152906001019060200180831161158457829003601f168201915b505050505081526020016002820160009054906101000a900473ffffffffffffffffffffffffffffffffffffffff1673ffffffffffffffffffffffffffffffffffffffff1673ffffffffffffffffffffffffffffffffffffffff16815260200160038201805461161090612115565b80601f016020809104026020016040519081016040528092919081815260200182805461163c90612115565b80156116895780601f1061165e57610100808354040283529160200191611689565b820191906000526020600020905b81548152906001019060200180831161166c57829003601f168201915b505050505081526020016004820180546116a290612115565b80601f01602080910402602001604051908101604052809291908181526020018280546116ce90612115565b801561171b5780601f106116f05761010080835404028352916020019161171b565b820191906000526020600020905b8154815290600101906020018083116116fe57829003601f168201915b5050505050815260200160058201805461173490612115565b80601f016020809104026020016040519081016040528092919081815260200182805461176090612115565b80156117ad5780601f10611782576101008083540402835291602001916117ad565b820191906000526020600020905b81548152906001019060200180831161179057829003601f168201915b505050505081526020016006820180546117c690612115565b80601f01602080910402602001604051908101604052809291908181526020018280546117f290612115565b801561183f5780601f106118145761010080835404028352916020019161183f565b820191906000526020600020905b81548152906001019060200180831161182257829003601f168201915b50505050508152602001600782015481525050815260200190600101906114ea565b50505050905060005b81518110156118cd5781818151811061188657611885612662565b5b60200260200101518585815181106118a1576118a0612662565b5b602002602001018190525083806118b7906124d9565b94505080806118c5906124d9565b91505061186a565b505080806118da906124d9565b915050611466565b508194505050505090565b60008054906101000a900473ffffffffffffffffffffffffffffffffffffffff1681565b6040518061010001604052806000815260200160608152602001600073ffffffffffffffffffffffffffffffffffffffff16815260200160608152602001606081526020016060815260200160608152602001600081525090565b6000819050919050565b61197f8161196c565b82525050565b600060208201905061199a6000830184611976565b92915050565b6000604051905090565b600080fd5b600080fd5b600073ffffffffffffffffffffffffffffffffffffffff82169050919050565b60006119df826119b4565b9050919050565b6119ef816119d4565b81146119fa57600080fd5b50565b600081359050611a0c816119e6565b92915050565b611a1b8161196c565b8114611a2657600080fd5b50565b600081359050611a3881611a12565b92915050565b60008060408385031215611a5557611a546119aa565b5b6000611a63858286016119fd565b9250506020611a7485828601611a29565b9150509250929050565b600081519050919050565b600082825260208201905092915050565b60005b83811015611ab8578082015181840152602081019050611a9d565b60008484015250505050565b6000601f19601f8301169050919050565b6000611ae082611a7e565b611aea8185611a89565b9350611afa818560208601611a9a565b611b0381611ac4565b840191505092915050565b611b17816119d4565b82525050565b600061010082019050611b33600083018b611976565b8181036020830152611b45818a611ad5565b9050611b546040830189611b0e565b8181036060830152611b668188611ad5565b90508181036080830152611b7a8187611ad5565b905081810360a0830152611b8e8186611ad5565b905081810360c0830152611ba28185611ad5565b9050611bb160e0830184611976565b9998505050505050505050565b600081519050919050565b600082825260208201905092915050565b6000819050602082019050919050565b611bf38161196c565b82525050565b600082825260208201905092915050565b6000611c1582611a7e565b611c1f8185611bf9565b9350611c2f818560208601611a9a565b611c3881611ac4565b840191505092915050565b611c4c816119d4565b82525050565b600061010083016000830151611c6b6000860182611bea565b5060208301518482036020860152611c838282611c0a565b9150506040830151611c986040860182611c43565b5060608301518482036060860152611cb08282611c0a565b91505060808301518482036080860152611cca8282611c0a565b91505060a083015184820360a0860152611ce48282611c0a565b91505060c083015184820360c0860152611cfe8282611c0a565b91505060e0830151611d1360e0860182611bea565b508091505092915050565b6000611d2a8383611c52565b905092915050565b6000602082019050919050565b6000611d4a82611bbe565b611d548185611bc9565b935083602082028501611d6685611bda565b8060005b85811015611da25784840389528151611d838582611d1e565b9450611d8e83611d32565b925060208a01995050600181019050611d6a565b50829750879550505050505092915050565b60006020820190508181036000830152611dce8184611d3f565b905092915050565b600060208284031215611dec57611deb6119aa565b5b6000611dfa848285016119fd565b91505092915050565b600080fd5b600080fd5b7f4e487b7100000000000000000000000000000000000000000000000000000000600052604160045260246000fd5b611e4582611ac4565b810181811067ffffffffffffffff82111715611e6457611e63611e0d565b5b80604052505050565b6000611e776119a0565b9050611e838282611e3c565b919050565b600067ffffffffffffffff821115611ea357611ea2611e0d565b5b611eac82611ac4565b9050602081019050919050565b82818337600083830152505050565b6000611edb611ed684611e88565b611e6d565b905082815260208101848484011115611ef757611ef6611e08565b5b611f02848285611eb9565b509392505050565b600082601f830112611f1f57611f1e611e03565b5b8135611f2f848260208601611ec8565b91505092915050565b600080600080600060a08688031215611f5457611f536119aa565b5b600086013567ffffffffffffffff811115611f7257611f716119af565b5b611f7e88828901611f0a565b955050602086013567ffffffffffffffff811115611f9f57611f9e6119af565b5b611fab88828901611f0a565b945050604086013567ffffffffffffffff811115611fcc57611fcb6119af565b5b611fd888828901611f0a565b935050606086013567ffffffffffffffff811115611ff957611ff86119af565b5b61200588828901611f0a565b925050608086013567ffffffffffffffff811115612026576120256119af565b5b61203288828901611f0a565b9150509295509295909350565b600060208284031215612055576120546119aa565b5b600061206384828501611a29565b91505092915050565b6000819050919050565b600061209161208c612087846119b4565b61206c565b6119b4565b9050919050565b60006120a382612076565b9050919050565b60006120b582612098565b9050919050565b6120c5816120aa565b82525050565b60006020820190506120e060008301846120bc565b92915050565b7f4e487b7100000000000000000000000000000000000000000000000000000000600052602260045260246000fd5b6000600282049050600182168061212d57607f821691505b6020821081036121405761213f6120e6565b5b50919050565b7f547765657420636f6e74656e742063616e6e6f7420626520656d707479000000600082015250565b600061217c601d83611a89565b915061218782612146565b602082019050919050565b600060208201905081810360008301526121ab8161216f565b9050919050565b60008190508160005260206000209050919050565b60006020601f8301049050919050565b600082821b905092915050565b6000600883026122147fffffffffffffffffffffffffffffffffffffffffffffffffffffffffffffffff826121d7565b61221e86836121d7565b95508019841693508086168417925050509392505050565b600061225161224c6122478461196c565b61206c565b61196c565b9050919050565b6000819050919050565b61226b83612236565b61227f61227782612258565b8484546121e4565b825550505050565b600090565b612294612287565b61229f818484612262565b505050565b5b818110156122c3576122b860008261228c565b6001810190506122a5565b5050565b601f821115612308576122d9816121b2565b6122e2846121c7565b810160208510156122f1578190505b6123056122fd856121c7565b8301826122a4565b50505b505050565b600082821c905092915050565b600061232b6000198460080261230d565b1980831691505092915050565b6000612344838361231a565b9150826002028217905092915050565b61235d82611a7e565b67ffffffffffffffff81111561237657612375611e0d565b5b6123808254612115565b61238b8282856122c7565b600060209050601f8311600181146123be57600084156123ac578287015190505b6123b68582612338565b86555061241e565b601f1984166123cc866121b2565b60005b828110156123f4578489015182556001820191506020850194506020810190506123cf565b86831015612411578489015161240d601f89168261231a565b8355505b6001600288020188555050505b505050505050565b600060c08201905081810360008301526124408189611ad5565b905081810360208301526124548188611ad5565b905081810360408301526124688187611ad5565b9050818103606083015261247c8186611ad5565b905081810360808301526124908185611ad5565b905061249f60a0830184611976565b979650505050505050565b7f4e487b7100000000000000000000000000000000000000000000000000000000600052601160045260246000fd5b60006124e48261196c565b91507fffffffffffffffffffffffffffffffffffffffffffffffffffffffffffffffff8203612516576125156124aa565b5b600182019050919050565b60006020820190506125366000830184611b0e565b92915050565b600067ffffffffffffffff82111561255757612556611e0d565b5b602082029050602081019050919050565b600080fd5b60008151905061257c816119e6565b92915050565b60006125956125908461253c565b611e6d565b905080838252602082019050602084028301858111156125b8576125b7612568565b5b835b818110156125e157806125cd888261256d565b8452602084019350506020810190506125ba565b5050509392505050565b600082601f830112612600576125ff611e03565b5b8151612610848260208601612582565b91505092915050565b60006020828403121561262f5761262e6119aa565b5b600082015167ffffffffffffffff81111561264d5761264c6119af565b5b612659848285016125eb565b91505092915050565b7f4e487b7100000000000000000000000000000000000000000000000000000000600052603260045260246000fd5b600061269c8261196c565b91506126a78361196c565b92508282019050808211156126bf576126be6124aa565b5b9291505056fea264697066735822122013cb29f1f393bad7a45a75607d79cf47e55ca19f7024577a7e3054ef9762b5de64736f6c63430008110033",
  "linkReferences": {},
  "deployedLinkReferences": {}
}